{
  "contractName": "HedgeFund",
  "abi": [
    {
      "constant": true,
      "inputs": [
        {
          "name": "",
          "type": "bytes32"
        }
      ],
      "name": "projects",
      "outputs": [
        {
          "name": "owner",
          "type": "address"
        },
        {
          "name": "target",
          "type": "uint256"
        },
        {
          "name": "max",
          "type": "uint256"
        },
        {
          "name": "fundingAmount",
          "type": "uint256"
        },
        {
          "name": "availableAmount",
          "type": "uint256"
        },
        {
          "name": "releasedAmount",
          "type": "uint256"
        },
        {
          "name": "retractAmount",
          "type": "uint256"
        },
        {
          "name": "startTime",
          "type": "uint256"
        },
        {
          "name": "deadline",
          "type": "uint256"
        },
        {
          "name": "lifeTime",
          "type": "uint256"
        },
        {
          "name": "state",
          "type": "uint8"
        },
        {
          "components": [
            {
              "name": "num",
              "type": "uint256"
            },
            {
              "name": "den",
              "type": "uint256"
            }
          ],
          "name": "plScale",
          "type": "tuple"
        },
        {
          "components": [
            {
              "name": "num",
              "type": "uint256"
            },
            {
              "name": "den",
              "type": "uint256"
            }
          ],
          "name": "commission",
          "type": "tuple"
        },
        {
          "name": "commisionAmount",
          "type": "uint256"
        }
      ],
      "payable": false,
      "stateMutability": "view",
      "type": "function"
    },
    {
      "inputs": [],
      "payable": false,
      "stateMutability": "nonpayable",
      "type": "constructor"
    },
    {
      "payable": true,
      "stateMutability": "payable",
      "type": "fallback"
    },
    {
      "anonymous": false,
      "inputs": [
        {
          "indexed": false,
          "name": "from",
          "type": "address"
        },
        {
          "indexed": false,
          "name": "amount",
          "type": "uint256"
        }
      ],
      "name": "__receive",
      "type": "event"
    },
    {
      "anonymous": false,
      "inputs": [
        {
          "indexed": false,
          "name": "owner",
          "type": "address"
        },
        {
          "indexed": false,
          "name": "pid",
          "type": "bytes32"
        }
      ],
      "name": "__init",
      "type": "event"
    },
    {
      "anonymous": false,
      "inputs": [
        {
          "indexed": false,
          "name": "pid",
          "type": "bytes32"
        },
        {
          "indexed": false,
          "name": "funder",
          "type": "address"
        },
        {
          "indexed": false,
          "name": "amount",
          "type": "uint256"
        }
      ],
      "name": "__funding",
      "type": "event"
    },
    {
      "anonymous": false,
      "inputs": [
        {
          "indexed": false,
          "name": "pid",
          "type": "bytes32"
        },
        {
          "indexed": false,
          "name": "requester",
          "type": "address"
        },
        {
          "indexed": false,
          "name": "fundAmount",
          "type": "uint256"
        },
        {
          "indexed": false,
          "name": "withdrawAmount",
          "type": "uint256"
        }
      ],
      "name": "__withdraw",
      "type": "event"
    },
    {
      "anonymous": false,
      "inputs": [
        {
          "indexed": false,
          "name": "pid",
          "type": "bytes32"
        },
        {
          "indexed": false,
          "name": "exchange",
          "type": "address"
        },
        {
          "indexed": false,
          "name": "amount",
          "type": "uint256"
        },
        {
          "indexed": false,
          "name": "stage",
          "type": "bytes32"
        }
      ],
      "name": "__release",
      "type": "event"
    },
    {
      "anonymous": false,
      "inputs": [
        {
          "indexed": false,
          "name": "pid",
          "type": "bytes32"
        },
        {
          "indexed": false,
          "name": "from",
          "type": "uint256"
        },
        {
          "indexed": false,
          "name": "to",
          "type": "uint256"
        },
        {
          "indexed": false,
          "name": "availableAmount",
          "type": "uint256"
        }
      ],
      "name": "__retract",
      "type": "event"
    },
    {
      "anonymous": false,
      "inputs": [
        {
          "indexed": false,
          "name": "sender",
          "type": "address"
        },
        {
          "indexed": false,
          "name": "pid",
          "type": "bytes32"
        },
        {
          "indexed": false,
          "name": "stop",
          "type": "uint256"
        }
      ],
      "name": "__voteStop",
      "type": "event"
    },
    {
      "anonymous": false,
      "inputs": [
        {
          "indexed": false,
          "name": "sender",
          "type": "address"
        },
        {
          "indexed": false,
          "name": "pid",
          "type": "bytes32"
        }
      ],
      "name": "__stop",
      "type": "event"
    },
    {
      "anonymous": false,
      "inputs": [
        {
          "indexed": false,
          "name": "pid",
          "type": "bytes32"
        }
      ],
      "name": "__verifyWithdraw",
      "type": "event"
    },
    {
      "anonymous": false,
      "inputs": [
        {
          "indexed": false,
          "name": "pid",
          "type": "bytes32"
        },
        {
          "indexed": false,
          "name": "from",
          "type": "uint8"
        },
        {
          "indexed": false,
          "name": "to",
          "type": "uint8"
        }
      ],
      "name": "__changeState",
      "type": "event"
    },
    {
      "anonymous": false,
      "inputs": [
        {
          "indexed": false,
          "name": "time1",
          "type": "uint256"
        },
        {
          "indexed": false,
          "name": "time2",
          "type": "uint256"
        }
      ],
      "name": "__log",
      "type": "event"
    },
    {
      "constant": true,
      "inputs": [
        {
          "name": "max",
          "type": "uint256"
        },
        {
          "name": "balance",
          "type": "uint256"
        }
      ],
      "name": "isReachMax",
      "outputs": [
        {
          "name": "r",
          "type": "bool"
        }
      ],
      "payable": false,
      "stateMutability": "pure",
      "type": "function"
    },
    {
      "constant": true,
      "inputs": [
        {
          "name": "time",
          "type": "uint256"
        }
      ],
      "name": "isReachTime",
      "outputs": [
        {
          "name": "",
          "type": "bool"
        }
      ],
      "payable": false,
      "stateMutability": "view",
      "type": "function"
    },
    {
      "constant": false,
      "inputs": [
        {
          "name": "target",
          "type": "uint256"
        },
        {
          "name": "max",
          "type": "uint256"
        },
        {
          "name": "deadline",
          "type": "uint256"
        },
        {
          "name": "lifeTime",
          "type": "uint256"
        },
        {
          "name": "commission",
          "type": "uint8"
        },
        {
          "name": "pid",
          "type": "bytes32"
        }
      ],
      "name": "initProject",
      "outputs": [],
      "payable": false,
      "stateMutability": "nonpayable",
      "type": "function"
    },
    {
      "constant": false,
      "inputs": [
        {
          "name": "pid",
          "type": "bytes32"
        }
      ],
      "name": "stopProject",
      "outputs": [],
      "payable": false,
      "stateMutability": "nonpayable",
      "type": "function"
    },
    {
      "constant": false,
      "inputs": [
        {
          "name": "pid",
          "type": "bytes32"
        }
      ],
      "name": "fundProject",
      "outputs": [],
      "payable": true,
      "stateMutability": "payable",
      "type": "function"
    },
    {
      "constant": false,
      "inputs": [
        {
          "name": "pid",
          "type": "bytes32"
        }
      ],
      "name": "withdrawFund",
      "outputs": [],
      "payable": false,
      "stateMutability": "nonpayable",
      "type": "function"
    },
    {
      "constant": false,
      "inputs": [
        {
          "name": "pid",
          "type": "bytes32"
        },
        {
          "name": "exchange",
          "type": "address"
        },
        {
          "name": "amount",
          "type": "uint256"
        },
        {
          "name": "stage",
          "type": "bytes32"
        }
      ],
      "name": "release",
      "outputs": [],
      "payable": false,
      "stateMutability": "nonpayable",
      "type": "function"
    },
    {
      "constant": false,
      "inputs": [
        {
          "name": "pid",
          "type": "bytes32"
        },
        {
          "name": "retractAmount",
          "type": "uint256"
        }
      ],
      "name": "retract",
      "outputs": [],
      "payable": false,
      "stateMutability": "nonpayable",
      "type": "function"
    },
    {
      "constant": false,
      "inputs": [
        {
          "name": "pid",
          "type": "bytes32"
        },
        {
          "name": "stop",
          "type": "uint8"
        }
      ],
      "name": "voteStop",
      "outputs": [],
      "payable": false,
      "stateMutability": "nonpayable",
      "type": "function"
    },
    {
      "constant": false,
      "inputs": [
        {
          "name": "pid",
          "type": "bytes32"
        }
      ],
      "name": "validateState",
      "outputs": [],
      "payable": false,
      "stateMutability": "nonpayable",
      "type": "function"
    },
    {
      "constant": true,
      "inputs": [
        {
          "name": "pid",
          "type": "bytes32"
        }
      ],
      "name": "shouldValidateState",
      "outputs": [
        {
          "name": "r",
          "type": "bool"
        }
      ],
      "payable": false,
      "stateMutability": "view",
      "type": "function"
    },
    {
      "constant": true,
      "inputs": [],
      "name": "getProjectSize",
      "outputs": [
        {
          "name": "size",
          "type": "uint256"
        }
      ],
      "payable": false,
      "stateMutability": "view",
      "type": "function"
    },
    {
      "constant": true,
      "inputs": [
        {
          "name": "pid",
          "type": "bytes32"
        }
      ],
      "name": "getProjectInfo",
      "outputs": [
        {
          "name": "owner",
          "type": "address"
        },
        {
          "name": "target",
          "type": "uint256"
        },
        {
          "name": "max",
          "type": "uint256"
        },
        {
          "name": "fundingAmount",
          "type": "uint256"
        },
        {
          "name": "availableAmount",
          "type": "uint256"
        },
        {
          "name": "releasedAmount",
          "type": "uint256"
        },
        {
          "name": "retractAmount",
          "type": "uint256"
        },
        {
          "name": "startTime",
          "type": "uint256"
        },
        {
          "name": "deadline",
          "type": "uint256"
        },
        {
          "name": "lifeTime",
          "type": "uint256"
        },
        {
          "name": "state",
          "type": "uint8"
        }
      ],
      "payable": false,
      "stateMutability": "view",
      "type": "function"
    },
    {
      "constant": true,
      "inputs": [
        {
          "name": "pid",
          "type": "bytes32"
        }
      ],
      "name": "getFunders",
      "outputs": [
        {
          "name": "",
          "type": "address[]"
        }
      ],
      "payable": false,
      "stateMutability": "view",
      "type": "function"
    },
    {
      "constant": true,
      "inputs": [
        {
          "name": "pid",
          "type": "bytes32"
        }
      ],
      "name": "getNumberOfFunder",
      "outputs": [
        {
          "name": "numFunder",
          "type": "uint256"
        }
      ],
      "payable": false,
      "stateMutability": "view",
      "type": "function"
    },
    {
      "constant": true,
      "inputs": [
        {
          "name": "pid",
          "type": "bytes32"
        },
        {
          "name": "funder",
          "type": "address"
        }
      ],
      "name": "getFundAmount",
      "outputs": [
        {
          "name": "",
          "type": "uint256"
        }
      ],
      "payable": false,
      "stateMutability": "view",
      "type": "function"
    },
    {
      "constant": true,
      "inputs": [
        {
          "name": "pid",
          "type": "bytes32"
        },
        {
          "name": "funder",
          "type": "address"
        }
      ],
      "name": "getWithdrawAmount",
      "outputs": [
        {
          "name": "",
          "type": "uint256"
        }
      ],
      "payable": false,
      "stateMutability": "view",
      "type": "function"
    }
  ],
  "bytecode": "0x608060405234801561001057600080fd5b50336000806101000a81548173ffffffffffffffffffffffffffffffffffffffff021916908373ffffffffffffffffffffffffffffffffffffffff160217905550613685806100606000396000f3006080604052600436106100fb576000357c0100000000000000000000000000000000000000000000000000000000900463ffffffff168062444e0c146101685780631808799714610193578063342c0714146101f857806347300e991461027e5780634a83b226146102e75780636adfab5f1461030b578063763ad3c71461037157806377f8f3cd146103b657806394746ebd146103e7578063a6edb4661461042c578063ad1b36a81461046a578063b96ea12d146104b9578063be441ffe14610593578063c75b7b54146105f8578063cafecc2314610629578063cdd53e8c14610664578063d79f2531146106ad578063e0566833146106de575b7f66d4047ce9a8f26f83e506193c7042f307599302ec245e5665842c13d78d29a63334604051808373ffffffffffffffffffffffffffffffffffffffff1673ffffffffffffffffffffffffffffffffffffffff1681526020018281526020019250505060405180910390a1005b34801561017457600080fd5b5061017d6107a3565b6040518082815260200191505060405180910390f35b34801561019f57600080fd5b506101e26004803603810190808035600019169060200190929190803573ffffffffffffffffffffffffffffffffffffffff1690602001909291905050506107b0565b6040518082815260200191505060405180910390f35b34801561020457600080fd5b50610227600480360381019080803560001916906020019092919050505061081b565b6040518080602001828103825283818151815260200191508051906020019060200280838360005b8381101561026a57808201518184015260208101905061024f565b505050509050019250505060405180910390f35b34801561028a57600080fd5b506102e56004803603810190808035600019169060200190929190803573ffffffffffffffffffffffffffffffffffffffff1690602001909291908035906020019092919080356000191690602001909291905050506108cd565b005b6103096004803603810190808035600019169060200190929190505050610dae565b005b34801561031757600080fd5b5061036f60048036038101908080359060200190929190803590602001909291908035906020019092919080359060200190929190803560ff1690602001909291908035600019169060200190929190505050611473565b005b34801561037d57600080fd5b5061039c600480360381019080803590602001909291905050506118dd565b604051808215151515815260200191505060405180910390f35b3480156103c257600080fd5b506103e560048036038101908080356000191690602001909291905050506118fa565b005b3480156103f357600080fd5b506104166004803603810190808035600019169060200190929190505050611be7565b6040518082815260200191505060405180910390f35b34801561043857600080fd5b506104686004803603810190808035600019169060200190929190803560ff169060200190929190505050611c17565b005b34801561047657600080fd5b5061049f6004803603810190808035906020019092919080359060200190929190505050612241565b604051808215151515815260200191505060405180910390f35b3480156104c557600080fd5b506104e8600480360381019080803560001916906020019092919050505061226b565b604051808f73ffffffffffffffffffffffffffffffffffffffff1673ffffffffffffffffffffffffffffffffffffffff1681526020018e81526020018d81526020018c81526020018b81526020018a815260200189815260200188815260200187815260200186815260200185600581111561056057fe5b60ff1681526020018481526020018381526020018281526020019e50505050505050505050505050505060405180910390f35b34801561059f57600080fd5b506105e26004803603810190808035600019169060200190929190803573ffffffffffffffffffffffffffffffffffffffff169060200190929190505050612340565b6040518082815260200191505060405180910390f35b34801561060457600080fd5b5061062760048036038101908080356000191690602001909291905050506123bd565b005b34801561063557600080fd5b506106626004803603810190808035600019169060200190929190803590602001909291905050506127d8565b005b34801561067057600080fd5b506106936004803603810190808035600019169060200190929190505050612b4f565b604051808215151515815260200191505060405180910390f35b3480156106b957600080fd5b506106dc6004803603810190808035600019169060200190929190505050612c7c565b005b3480156106ea57600080fd5b5061070d600480360381019080803560001916906020019092919050505061339a565b604051808c73ffffffffffffffffffffffffffffffffffffffff1673ffffffffffffffffffffffffffffffffffffffff1681526020018b81526020018a815260200189815260200188815260200187815260200186815260200185815260200184815260200183815260200182600581111561078557fe5b60ff1681526020019b50505050505050505050505060405180910390f35b6000600280549050905090565b600080600160008560001916600019168152602001908152602001600020905080600b0160008473ffffffffffffffffffffffffffffffffffffffff1673ffffffffffffffffffffffffffffffffffffffff1681526020019081526020016000205491505092915050565b60606000600160008460001916600019168152602001908152602001600020905080600c018054806020026020016040519081016040528092919081815260200182805480156108c057602002820191906000526020600020905b8160009054906101000a900473ffffffffffffffffffffffffffffffffffffffff1673ffffffffffffffffffffffffffffffffffffffff1681526020019060010190808311610876575b5050505050915050919050565b60003373ffffffffffffffffffffffffffffffffffffffff166000809054906101000a900473ffffffffffffffffffffffffffffffffffffffff1673ffffffffffffffffffffffffffffffffffffffff16141515610993576040517f08c379a00000000000000000000000000000000000000000000000000000000081526004018080602001828103825260038152602001807f313031000000000000000000000000000000000000000000000000000000000081525060200191505060405180910390fd5b6001600086600019166000191681526020019081526020016000209050600260058111156109bd57fe5b81600f0160009054906101000a900460ff1660058111156109da57fe5b1480610a0d5750600360058111156109ee57fe5b81600f0160009054906101000a900460ff166005811115610a0b57fe5b145b1515610a81576040517f08c379a00000000000000000000000000000000000000000000000000000000081526004018080602001828103825260038152602001807f313030000000000000000000000000000000000000000000000000000000000081525060200191505060405180910390fd5b80600301548382600501540111151515610b03576040517f08c379a00000000000000000000000000000000000000000000000000000000081526004018080602001828103825260038152602001807f313032000000000000000000000000000000000000000000000000000000000081525060200191505060405180910390fd5b6000816007016000846000191660001916815260200190815260200160002054141515610b98576040517f08c379a00000000000000000000000000000000000000000000000000000000081526004018080602001828103825260208152602001807f416c7265616479207472616e7366657220666f72207468697320706572696f6481525060200191505060405180910390fd5b60026005811115610ba557fe5b81600f0160009054906101000a900460ff166005811115610bc257fe5b1415610bd2574281600801819055505b8373ffffffffffffffffffffffffffffffffffffffff166108fc849081150290604051600060405180830381858888f19350505050158015610c18573d6000803e3d6000fd5b50610c3083826005015461345390919063ffffffff16565b8160050181905550610c4f83826004015461347490919063ffffffff16565b8160040181905550828160070160008460001916600019168152602001908152602001600020819055507f8676373e629c3c9eb013dad38452886dab0f4acc16b42e1fa7488a7132b30d1d8582600f0160009054906101000a900460ff166003604051808460001916600019168152602001836005811115610ccd57fe5b60ff168152602001826005811115610ce157fe5b60ff168152602001935050505060405180910390a1600381600f0160006101000a81548160ff02191690836005811115610d1757fe5b02179055507f067f24e7c2758367ef14bbb12245ef87e7ee67352a4d5b965175a1d46bdb71b2858585856040518085600019166000191681526020018473ffffffffffffffffffffffffffffffffffffffff1673ffffffffffffffffffffffffffffffffffffffff168152602001838152602001826000191660001916815260200194505050505060405180910390a15050505050565b600080600160008460001916600019168152602001908152602001600020915060016005811115610ddb57fe5b82600f0160009054906101000a900460ff166005811115610df857fe5b1480610e2b575060026005811115610e0c57fe5b82600f0160009054906101000a900460ff166005811115610e2957fe5b145b1515610e9f576040517f08c379a00000000000000000000000000000000000000000000000000000000081526004018080602001828103825260038152602001807f313030000000000000000000000000000000000000000000000000000000000081525060200191505060405180910390fd5b610eac82600901546118dd565b15610f1f576040517f08c379a00000000000000000000000000000000000000000000000000000000081526004018080602001828103825260188152602001807f43616e6e6f742066756e6420617420746869732074696d65000000000000000081525060200191505060405180910390fd5b6000826002015414158015610f425750610f4182600201548360030154612241565b5b15610fb5576040517f08c379a00000000000000000000000000000000000000000000000000000000081526004018080602001828103825260128152602001807f46756e6420676574206d6178206c696d6974000000000000000000000000000081525060200191505060405180910390fd5b60016005811115610fc257fe5b82600f0160009054906101000a900460ff166005811115610fdf57fe5b14156110ad57816001015461100134846003015461345390919063ffffffff16565b1015156110ac577f8676373e629c3c9eb013dad38452886dab0f4acc16b42e1fa7488a7132b30d1d8383600f0160009054906101000a900460ff16600260405180846000191660001916815260200183600581111561105c57fe5b60ff16815260200182600581111561107057fe5b60ff168152602001935050505060405180910390a1600282600f0160006101000a81548160ff021916908360058111156110a657fe5b02179055505b5b600034111561146e57600082600b0160003373ffffffffffffffffffffffffffffffffffffffff1673ffffffffffffffffffffffffffffffffffffffff16815260200190815260200160002054111561119e576111543483600b0160003373ffffffffffffffffffffffffffffffffffffffff1673ffffffffffffffffffffffffffffffffffffffff1681526020019081526020016000205461345390919063ffffffff16565b82600b0160003373ffffffffffffffffffffffffffffffffffffffff1673ffffffffffffffffffffffffffffffffffffffff1681526020019081526020016000208190555061124d565b3482600b0160003373ffffffffffffffffffffffffffffffffffffffff1673ffffffffffffffffffffffffffffffffffffffff1681526020019081526020016000208190555081600c013390806001815401808255809150509060018203906000526020600020016000909192909190916101000a81548173ffffffffffffffffffffffffffffffffffffffff021916908373ffffffffffffffffffffffffffffffffffffffff160217905550505b61126434836003015461345390919063ffffffff16565b826003018190555061127e82600201548360030154612241565b156113e55767016345785d8a00006112a78360020154846003015461347490919063ffffffff16565b11156113e4576112e267016345785d8a00006112d48460020154856003015461347490919063ffffffff16565b61347490919063ffffffff16565b90503373ffffffffffffffffffffffffffffffffffffffff166108fc829081150290604051600060405180830381858888f1935050505015801561132a573d6000803e3d6000fd5b5061137f8183600b0160003373ffffffffffffffffffffffffffffffffffffffff1673ffffffffffffffffffffffffffffffffffffffff1681526020019081526020016000205461347490919063ffffffff16565b82600b0160003373ffffffffffffffffffffffffffffffffffffffff1673ffffffffffffffffffffffffffffffffffffffff168152602001908152602001600020819055506113db81836003015461347490919063ffffffff16565b82600301819055505b5b816003015482600401819055507ff0db6323ee6b8742a2216f8f9c03c6fd9b5c528baf301e755df27dfc616a7cf28333346040518084600019166000191681526020018373ffffffffffffffffffffffffffffffffffffffff1673ffffffffffffffffffffffffffffffffffffffff168152602001828152602001935050505060405180910390a15b505050565b61147b6134c7565b600060016000846000191660001916815260200190815260200160002060000160009054906101000a900473ffffffffffffffffffffffffffffffffffffffff1673ffffffffffffffffffffffffffffffffffffffff16141515611547576040517f08c379a00000000000000000000000000000000000000000000000000000000081526004018080602001828103825260138152602001807f50494420416c726561647920637265617465640000000000000000000000000081525060200191505060405180910390fd5b33816000019073ffffffffffffffffffffffffffffffffffffffff16908173ffffffffffffffffffffffffffffffffffffffff16815250506001816101800190600581111561159257fe5b9081600581111561159f57fe5b8152505060008160a001818152505060008160c001818152505060408051908101604052808460ff1681526020016064815250816101c0018190525084816101000181815250506201518084028161012001818152505085816040018181525050868160200181815250506000816060018181525050600081608001818152505060008160a00181815250506040805190810160405280600181526020016001815250816101a001819052508060016000846000191660001916815260200190815260200160002060008201518160000160006101000a81548173ffffffffffffffffffffffffffffffffffffffff021916908373ffffffffffffffffffffffffffffffffffffffff1602179055506020820151816001015560408201518160020155606082015181600301556080820151816004015560a0820151816005015560c0820151816006015560e08201518160080155610100820151816009015561012082015181600a015561014082015181600c019080519060200190611727929190613572565b5061016082015181600e019080519060200190611745929190613572565b5061018082015181600f0160006101000a81548160ff0219169083600581111561176b57fe5b02179055506101a082015181601001600082015181600001556020820151816001015550506101c082015181601201600082015181600001556020820151816001015550506101e0820151816014015590505060028290806001815401808255809150509060018203906000526020600020016000909192909190915090600019169055507fbd1462ecfe3f41a96de9a4469f423d90d9ef238c7893dcd605f61ce55aa5b3643383604051808373ffffffffffffffffffffffffffffffffffffffff1673ffffffffffffffffffffffffffffffffffffffff16815260200182600019166000191681526020019250505060405180910390a17f8676373e629c3c9eb013dad38452886dab0f4acc16b42e1fa7488a7132b30d1d8260008361018001516040518084600019166000191681526020018360058111156118ab57fe5b60ff1681526020018260058111156118bf57fe5b60ff168152602001935050505060405180910390a150505050505050565b6000814211156118f057600190506118f5565b600090505b919050565b600060016000836000191660001916815260200190815260200160002090506001600581111561192657fe5b81600f0160009054906101000a900460ff16600581111561194357fe5b1415611a045761195681600901546118dd565b156119ff577f8676373e629c3c9eb013dad38452886dab0f4acc16b42e1fa7488a7132b30d1d8282600f0160009054906101000a900460ff1660056040518084600019166000191681526020018360058111156119af57fe5b60ff1681526020018260058111156119c357fe5b60ff168152602001935050505060405180910390a1600581600f0160006101000a81548160ff021916908360058111156119f957fe5b02179055505b611be3565b60026005811115611a1157fe5b81600f0160009054906101000a900460ff166005811115611a2e57fe5b1415611af457611a4662093a808260090154016118dd565b15611aef577f8676373e629c3c9eb013dad38452886dab0f4acc16b42e1fa7488a7132b30d1d8282600f0160009054906101000a900460ff166005604051808460001916600019168152602001836005811115611a9f57fe5b60ff168152602001826005811115611ab357fe5b60ff168152602001935050505060405180910390a1600581600f0160006101000a81548160ff02191690836005811115611ae957fe5b02179055505b611be2565b60036005811115611b0157fe5b81600f0160009054906101000a900460ff166005811115611b1e57fe5b1415611be157611b3781600a01548260090154016118dd565b15611be0577f8676373e629c3c9eb013dad38452886dab0f4acc16b42e1fa7488a7132b30d1d8282600f0160009054906101000a900460ff166004604051808460001916600019168152602001836005811115611b9057fe5b60ff168152602001826005811115611ba457fe5b60ff168152602001935050505060405180910390a1600481600f0160006101000a81548160ff02191690836005811115611bda57fe5b02179055505b5b5b5b5050565b600080600160008460001916600019168152602001908152602001600020905080600c0180549050915050919050565b6000806000806000600160008860001916600019168152602001908152602001600020945060026005811115611c4957fe5b85600f0160009054906101000a900460ff166005811115611c6657fe5b1480611c99575060036005811115611c7a57fe5b85600f0160009054906101000a900460ff166005811115611c9757fe5b145b1515611d0d576040517f08c379a00000000000000000000000000000000000000000000000000000000081526004018080602001828103825260038152602001807f313030000000000000000000000000000000000000000000000000000000000081525060200191505060405180910390fd5b600085600d0160003373ffffffffffffffffffffffffffffffffffffffff1673ffffffffffffffffffffffffffffffffffffffff16815260200190815260200160002060000154141515611dbd578585600d0160003373ffffffffffffffffffffffffffffffffffffffff1673ffffffffffffffffffffffffffffffffffffffff16815260200190815260200160002060010160006101000a81548160ff021916908360ff160217905550611ecd565b84600e013390806001815401808255809150509060018203906000526020600020016000909192909190916101000a81548173ffffffffffffffffffffffffffffffffffffffff021916908373ffffffffffffffffffffffffffffffffffffffff16021790555093508385600d0160003373ffffffffffffffffffffffffffffffffffffffff1673ffffffffffffffffffffffffffffffffffffffff168152602001908152602001600020600001819055508585600d0160003373ffffffffffffffffffffffffffffffffffffffff1673ffffffffffffffffffffffffffffffffffffffff16815260200190815260200160002060010160006101000a81548160ff021916908360ff1602179055505b60009250600091505b84600e0180549050821015611fe45784600e0182815481101515611ef657fe5b9060005260206000200160009054906101000a900473ffffffffffffffffffffffffffffffffffffffff169050600185600d0160008373ffffffffffffffffffffffffffffffffffffffff1673ffffffffffffffffffffffffffffffffffffffff16815260200190815260200160002060010160009054906101000a900460ff1660ff161415611fd757611fd485600b0160008373ffffffffffffffffffffffffffffffffffffffff1673ffffffffffffffffffffffffffffffffffffffff168152602001908152602001600020548461345390919063ffffffff16565b92505b8180600101925050611ed6565b60028560030154811515611ff457fe5b04831115612179576002600581111561200957fe5b85600f0160009054906101000a900460ff16600581111561202657fe5b14156120d4577f8676373e629c3c9eb013dad38452886dab0f4acc16b42e1fa7488a7132b30d1d8786600f0160009054906101000a900460ff16600560405180846000191660001916815260200183600581111561208057fe5b60ff16815260200182600581111561209457fe5b60ff168152602001935050505060405180910390a1600585600f0160006101000a81548160ff021916908360058111156120ca57fe5b0217905550612178565b7f8676373e629c3c9eb013dad38452886dab0f4acc16b42e1fa7488a7132b30d1d8786600f0160009054906101000a900460ff16600460405180846000191660001916815260200183600581111561212857fe5b60ff16815260200182600581111561213c57fe5b60ff168152602001935050505060405180910390a1600485600f0160006101000a81548160ff0219169083600581111561217257fe5b02179055505b5b7fe2e08dd0f3761d632c55e30d4035eeee9d2144c0668547f520ea18459bd961f7338887600d0160003373ffffffffffffffffffffffffffffffffffffffff1673ffffffffffffffffffffffffffffffffffffffff16815260200190815260200160002060000154604051808473ffffffffffffffffffffffffffffffffffffffff1673ffffffffffffffffffffffffffffffffffffffff1681526020018360001916600019168152602001828152602001935050505060405180910390a150505050505050565b600080831180156122525750828210155b156122605760019050612265565b600090505b92915050565b60016020528060005260406000206000915090508060000160009054906101000a900473ffffffffffffffffffffffffffffffffffffffff169080600101549080600201549080600301549080600401549080600501549080600601549080600801549080600901549080600a01549080600f0160009054906101000a900460ff1690806010016040805190810160405290816000820154815260200160018201548152505090806012016040805190810160405290816000820154815260200160018201548152505090806014015490508e565b600080600060016000866000191660001916815260200190815260200160002091506123b08260100183600b0160008773ffffffffffffffffffffffffffffffffffffffff1673ffffffffffffffffffffffffffffffffffffffff16815260200190815260200160002054613495565b9050809250505092915050565b60008160016000826000191660001916815260200190815260200160002060000160009054906101000a900473ffffffffffffffffffffffffffffffffffffffff1673ffffffffffffffffffffffffffffffffffffffff163373ffffffffffffffffffffffffffffffffffffffff16148061248457503373ffffffffffffffffffffffffffffffffffffffff166000809054906101000a900473ffffffffffffffffffffffffffffffffffffffff1673ffffffffffffffffffffffffffffffffffffffff16145b15156124f8576040517f08c379a00000000000000000000000000000000000000000000000000000000081526004018080602001828103825260038152602001807f313031000000000000000000000000000000000000000000000000000000000081525060200191505060405180910390fd5b600160008460001916600019168152602001908152602001600020915060058081111561252157fe5b82600f0160009054906101000a900460ff16600581111561253e57fe5b14156125b2576040517f08c379a000000000000000000000000000000000000000000000000000000000815260040180806020018281038252600c8152602001807f416c72656164792073746f70000000000000000000000000000000000000000081525060200191505060405180910390fd5b7f8544dfa7b50093636ee3fe1d28f5844df5af6d8beb5ba4e60bafa009dfba28a23384604051808373ffffffffffffffffffffffffffffffffffffffff1673ffffffffffffffffffffffffffffffffffffffff16815260200182600019166000191681526020019250505060405180910390a16001600581111561263257fe5b82600f0160009054906101000a900460ff16600581111561264f57fe5b148061268257506002600581111561266357fe5b82600f0160009054906101000a900460ff16600581111561268057fe5b145b1561272f577f8676373e629c3c9eb013dad38452886dab0f4acc16b42e1fa7488a7132b30d1d8383600f0160009054906101000a900460ff1660056040518084600019166000191681526020018360058111156126db57fe5b60ff1681526020018260058111156126ef57fe5b60ff168152602001935050505060405180910390a1600582600f0160006101000a81548160ff0219169083600581111561272557fe5b02179055506127d3565b7f8676373e629c3c9eb013dad38452886dab0f4acc16b42e1fa7488a7132b30d1d8383600f0160009054906101000a900460ff16600460405180846000191660001916815260200183600581111561278357fe5b60ff16815260200182600581111561279757fe5b60ff168152602001935050505060405180910390a1600482600f0160006101000a81548160ff021916908360058111156127cd57fe5b02179055505b505050565b6000803373ffffffffffffffffffffffffffffffffffffffff166000809054906101000a900473ffffffffffffffffffffffffffffffffffffffff1673ffffffffffffffffffffffffffffffffffffffff1614151561289f576040517f08c379a00000000000000000000000000000000000000000000000000000000081526004018080602001828103825260038152602001807f313031000000000000000000000000000000000000000000000000000000000081525060200191505060405180910390fd5b6001600085600019166000191681526020019081526020016000209150600460058111156128c957fe5b82600f0160009054906101000a900460ff1660058111156128e657fe5b14151561295b576040517f08c379a00000000000000000000000000000000000000000000000000000000081526004018080602001828103825260038152602001807f313030000000000000000000000000000000000000000000000000000000000081525060200191505060405180910390fd5b61297283836004015461345390919063ffffffff16565b82600401819055508160030154826004015411156129fb576129b1826012016129ac8460030154856004015461347490919063ffffffff16565b613495565b905060408051908101604052808284600401540381526020018360030154815250826010016000820151816000015560208201518160010155905050808260140181905550612a34565b60408051908101604052808360040154815260200183600301548152508260100160008201518160000155602082015181600101559050505b8282600601819055507f8676373e629c3c9eb013dad38452886dab0f4acc16b42e1fa7488a7132b30d1d8483600f0160009054906101000a900460ff166005604051808460001916600019168152602001836005811115612a9157fe5b60ff168152602001826005811115612aa557fe5b60ff168152602001935050505060405180910390a1600582600f0160006101000a81548160ff02191690836005811115612adb57fe5b02179055507f11913169d245e0eefd54d229266cd36478bc6f96d59d57a10d20b5b568e3fd078483601001600001548460100160010154856004015460405180856000191660001916815260200184815260200183815260200182815260200194505050505060405180910390a150505050565b600080600160008460001916600019168152602001908152602001600020905060016005811115612b7c57fe5b81600f0160009054906101000a900460ff166005811115612b9957fe5b1415612bbf57612bac81600901546118dd565b15612bba5760019150612c76565b612c75565b60026005811115612bcc57fe5b81600f0160009054906101000a900460ff166005811115612be957fe5b1415612c1457612c0162093a808260090154016118dd565b15612c0f5760019150612c76565b612c74565b60036005811115612c2157fe5b81600f0160009054906101000a900460ff166005811115612c3e57fe5b1415612c6a57612c5781600a01548260090154016118dd565b15612c655760019150612c76565b612c73565b60009150612c76565b5b5b5b50919050565b600080600160008460001916600019168152602001908152602001600020915060016005811115612ca957fe5b82600f0160009054906101000a900460ff166005811115612cc657fe5b148015612d145750600082600b0160003373ffffffffffffffffffffffffffffffffffffffff1673ffffffffffffffffffffffffffffffffffffffff16815260200190815260200160002054115b15612f5f57612d7182600b0160003373ffffffffffffffffffffffffffffffffffffffff1673ffffffffffffffffffffffffffffffffffffffff16815260200190815260200160002054836003015461347490919063ffffffff16565b8260030181905550816003015482600401819055503373ffffffffffffffffffffffffffffffffffffffff166108fc83600b0160003373ffffffffffffffffffffffffffffffffffffffff1673ffffffffffffffffffffffffffffffffffffffff168152602001908152602001600020549081150290604051600060405180830381858888f19350505050158015612e0d573d6000803e3d6000fd5b507f10d7441b300e3a1a1c45dea9fea0cf44680434ca5ed40207f0fd018c7e3dde71833384600b0160003373ffffffffffffffffffffffffffffffffffffffff1673ffffffffffffffffffffffffffffffffffffffff1681526020019081526020016000205485600b0160003373ffffffffffffffffffffffffffffffffffffffff1673ffffffffffffffffffffffffffffffffffffffff168152602001908152602001600020546040518085600019166000191681526020018473ffffffffffffffffffffffffffffffffffffffff1673ffffffffffffffffffffffffffffffffffffffff16815260200183815260200182815260200194505050505060405180910390a1600082600b0160003373ffffffffffffffffffffffffffffffffffffffff1673ffffffffffffffffffffffffffffffffffffffff16815260200190815260200160002081905550613395565b600580811115612f6b57fe5b82600f0160009054906101000a900460ff166005811115612f8857fe5b1480156130415750600082600b0160003373ffffffffffffffffffffffffffffffffffffffff1673ffffffffffffffffffffffffffffffffffffffff16815260200190815260200160002054118061304057508160000160009054906101000a900473ffffffffffffffffffffffffffffffffffffffff1673ffffffffffffffffffffffffffffffffffffffff163373ffffffffffffffffffffffffffffffffffffffff1614801561303f57506000826014015414155b5b5b1561326e576130948260100183600b0160003373ffffffffffffffffffffffffffffffffffffffff1673ffffffffffffffffffffffffffffffffffffffff16815260200190815260200160002054613495565b90508160000160009054906101000a900473ffffffffffffffffffffffffffffffffffffffff1673ffffffffffffffffffffffffffffffffffffffff163373ffffffffffffffffffffffffffffffffffffffff1614156130f8578160140154810190505b7f10d7441b300e3a1a1c45dea9fea0cf44680434ca5ed40207f0fd018c7e3dde71833384600b0160003373ffffffffffffffffffffffffffffffffffffffff1673ffffffffffffffffffffffffffffffffffffffff16815260200190815260200160002054846040518085600019166000191681526020018473ffffffffffffffffffffffffffffffffffffffff1673ffffffffffffffffffffffffffffffffffffffff16815260200183815260200182815260200194505050505060405180910390a16131d381836004015461347490919063ffffffff16565b82600401819055503373ffffffffffffffffffffffffffffffffffffffff166108fc829081150290604051600060405180830381858888f19350505050158015613221573d6000803e3d6000fd5b50600082600b0160003373ffffffffffffffffffffffffffffffffffffffff1673ffffffffffffffffffffffffffffffffffffffff16815260200190815260200160002081905550613394565b600082600b0160003373ffffffffffffffffffffffffffffffffffffffff1673ffffffffffffffffffffffffffffffffffffffff168152602001908152602001600020541415613326576040517f08c379a00000000000000000000000000000000000000000000000000000000081526004018080602001828103825260148152602001807f4e6f206d6f6e657920746f20776974686472617700000000000000000000000081525060200191505060405180910390fd5b6040517f08c379a000000000000000000000000000000000000000000000000000000000815260040180806020018281038252600f8152602001807f43616e6e6f74207769746864726177000000000000000000000000000000000081525060200191505060405180910390fd5b5b505050565b600080600080600080600080600080600080600160008e6000191660001916815260200190815260200160002090508060000160009054906101000a900473ffffffffffffffffffffffffffffffffffffffff168160010154826002015483600301548460040154856005015486600601548760080154886009015489600a01548a600f0160009054906101000a900460ff169b509b509b509b509b509b509b509b509b509b509b505091939597999b90929496989a50565b600080828401905083811015151561346a57600080fd5b8091505092915050565b60008083831115151561348657600080fd5b82840390508091505092915050565b6000808214156134a857600090506134c1565b8260010154836000015483028115156134bd57fe5b0490505b92915050565b61024060405190810160405280600073ffffffffffffffffffffffffffffffffffffffff16815260200160008152602001600081526020016000815260200160008152602001600081526020016000815260200160008152602001600081526020016000815260200160608152602001606081526020016000600581111561354b57fe5b81526020016135586135fc565b81526020016135656135fc565b8152602001600081525090565b8280548282559060005260206000209081019282156135eb579160200282015b828111156135ea5782518260006101000a81548173ffffffffffffffffffffffffffffffffffffffff021916908373ffffffffffffffffffffffffffffffffffffffff16021790555091602001919060010190613592565b5b5090506135f89190613616565b5090565b604080519081016040528060008152602001600081525090565b61365691905b8082111561365257600081816101000a81549073ffffffffffffffffffffffffffffffffffffffff02191690555060010161361c565b5090565b905600a165627a7a72305820b66818ec35e93c269ac4f3665a6031a5eb5d52b835c3308a9fbb10c164bb0f9a0029",
  "source": "/**\n    Author: vvstdung89\n    Version: 0.01\n    Date: 22 August 2018\n\n    TODO:\n        Optional: Vote 50% -> stop project (centralize accounting -> smart contract accounting)\n        Function to read data|debug\n    CONSIDER:\n        storage vs memory\n        Test: with large number of ether & scale\n    Note:\n        Project timeout: in release state, centralized system need to retract before user can withdraw!!!\n*/\n\npragma solidity ^0.4.2;\n\n//100: State Error\n//101: Unauthorization\n//102: release wrong amount\n\nlibrary SafeMath {\n    function mul(uint256 _a, uint256 _b) internal pure returns (uint256) {\n        // Gas optimization: this is cheaper than requiring 'a' not being zero, but the\n        // benefit is lost if 'b' is also tested.\n        // See: https://github.com/OpenZeppelin/openzeppelin-solidity/pull/522\n        if (_a == 0) {\n            return 0;\n        }\n\n        uint256 c = _a * _b;\n        require(c / _a == _b);\n\n        return c;\n    }\n\n    function div(uint256 _a, uint256 _b) internal pure returns (uint256) {\n        require(_b > 0); // Solidity only automatically asserts when dividing by 0\n        uint256 c = _a / _b;\n        // assert(_a == _b * c + _a % _b); // There is no case in which this doesn't hold\n\n        return c;\n    }\n\n    function sub(uint256 _a, uint256 _b) internal pure returns (uint256) {\n        require(_b <= _a);\n        uint256 c = _a - _b;\n\n        return c;\n    }\n\n    function add(uint256 _a, uint256 _b) internal pure returns (uint256) {\n        uint256 c = _a + _b;\n        require(c >= _a);\n\n        return c;\n    }\n\n    function mod(uint256 a, uint256 b) internal pure returns (uint256) {\n        require(b != 0);\n        return a % b;\n    }\n}\n\n\n\nlibrary Percent {\n    // Solidity automatically throws when dividing by 0\n    struct percent {\n        uint num;\n        uint den;\n    }\n    function mul(percent storage p, uint a) internal view returns (uint) {\n        if (a == 0) {\n            return 0;\n        }\n        return a*p.num/p.den;\n    }\n\n    function div(percent storage p, uint a) internal view returns (uint) {\n        return a/p.num*p.den;\n    }\n\n    function sub(percent storage p, uint a) internal view returns (uint) {\n        uint b = mul(p, a);\n        if (b >= a) return 0;\n        return a - b;\n    }\n\n    function add(percent storage p, uint a) internal view returns (uint) {\n        return a + mul(p, a);\n    }\n}\n\n\ncontract HedgeFund {\n    using Percent for Percent.percent;\n    using SafeMath for uint;\n\n    //Parameters\n    enum S { NULL, INITFUND, READY, RELEASED, STOP, WITHDRAW }\n    \n\n    struct CancelData { // userWithdrawFund = (userFund * scale)/denominator\n        uint id;\n        uint8 vote;\n    }\n\n    struct Project {\n        address owner;\n        uint target;\n        uint max;\n        uint fundingAmount;\n        uint availableAmount;\n\n        uint releasedAmount;\n        uint retractAmount;\n\n        mapping(bytes32 => uint) releasePeriod;\n        \n        uint startTime;\n\n        uint deadline;\n        uint lifeTime;\n        \n        mapping(address => uint) funds;\n        address[] funder;\n        mapping(address => CancelData) cancelRequests;\n        address[] cancelRequestArr;\n\n        S state;\n        Percent.percent plScale;\n        Percent.percent commission;\n        uint commisionAmount;\n    }\n\n    address contractOwner;\n    mapping(bytes32 => Project) public projects;\n    bytes32[] PIDs;\n\n    //event\n\n    event __receive(address from,  uint amount);\n\n    event __init(address owner,  bytes32 pid);\n    event __funding(bytes32 pid, address funder,  uint amount);\n    \n\n    event __withdraw(bytes32 pid, address requester, uint fundAmount, uint withdrawAmount);\n    event __release(bytes32 pid, address exchange, uint amount, bytes32 stage);\n    event __retract(bytes32 pid, uint from, uint to, uint availableAmount);\n    event __voteStop(address sender, bytes32 pid, uint stop);\n    event __stop(address sender, bytes32 pid);\n    event __verifyWithdraw(bytes32 pid);\n\n    event __changeState(bytes32 pid, S from, S to);\n    event __log(uint time1, uint time2);\n\n    modifier onlyContractOwner() {\n        require(contractOwner == msg.sender, \"101\");\n        _;\n    }\n\n    modifier onlyProjectOwner(bytes32 pid) {\n        require(msg.sender == projects[pid].owner || contractOwner == msg.sender, \"101\");\n        _;\n    }\n\n    function isReachMax(uint max,uint  balance) public pure returns (bool r) {\n        if (max > 0 && balance >= max) return true;\n        else return false;\n    }\n    \n    function isReachTime(uint time) public view returns (bool) {\n        if (block.timestamp > time) return true; //Using timestamp in eth blockchain???\n        else return false;\n    }\n\n    //Constructor\n    constructor() public {\n        contractOwner = msg.sender;\n    }\n\n    //POST function\n    function initProject(uint target, uint max, uint deadline, uint lifeTime, uint8 commission, bytes32 pid) public {\n        require(projects[pid].owner == 0, \"PID Already created\") ;\n\n        Project memory p;\n        \n        p.owner = msg.sender;\n        p.state = S.INITFUND;\n        p.releasedAmount = 0;\n        p.retractAmount = 0;\n        p.commission = Percent.percent(commission,100);\n        \n\n        p.deadline = deadline;\n        p.lifeTime = lifeTime * 1 days;\n\n        p.max = max;\n        p.target = target;\n\n        p.fundingAmount = 0;\n        p.availableAmount = 0;\n        p.releasedAmount = 0;\n        p.plScale = Percent.percent(1, 1);\n\n        projects[pid] = p;\n        PIDs.push(pid);\n        emit __init(msg.sender, pid);\n        emit __changeState(pid, S.NULL, p.state);\n    }\n    \n    function stopProject(bytes32 pid) public onlyProjectOwner(pid) {\n        Project storage p = projects[pid];\n        if (p.state == S.WITHDRAW) revert (\"Already stop\");\n        emit __stop(msg.sender, pid);\n        if (p.state == S.INITFUND || p.state == S.READY){\n            emit __changeState(pid, p.state, S.WITHDRAW);\n            p.state = S.WITHDRAW;\n        }else {\n            emit __changeState(pid, p.state, S.STOP);\n            p.state = S.STOP;\n        }\n    }\n\n    function fundProject(bytes32 pid) public payable {\n        Project storage p = projects[pid];\n        require(p.state == S.INITFUND || p.state == S.READY, \"100\");\n\n        if (isReachTime(p.deadline)){\n            return revert(\"Cannot fund at this time\");\n        } \n\n        if (p.max != 0 && isReachMax(p.max, p.fundingAmount)){\n            return revert(\"Fund get max limit\");\n        }\n\n        if (p.state == S.INITFUND){\n            if (p.fundingAmount.add(msg.value) >= p.target) {\n                emit __changeState(pid, p.state, S.READY);\n                p.state = S.READY;\n            }\n        } \n        \n        //update fund\n        if ( msg.value > 0 ) {\n            if (p.funds[msg.sender] > 0)\n                p.funds[msg.sender] = p.funds[msg.sender].add(msg.value);\n            else {\n                p.funds[msg.sender] = msg.value;\n                p.funder.push(msg.sender);\n            }\n\n            p.fundingAmount = p.fundingAmount.add(msg.value);\n\n            //recheck the balance if fund is larger max\n            if ( isReachMax(p.max, p.fundingAmount) ){\n                if (p.fundingAmount.sub(p.max) > 0.1 ether) { \n                    uint returnAmount = p.fundingAmount.sub(p.max).sub(0.1 ether);\n                    msg.sender.transfer(returnAmount);\n                    p.funds[msg.sender] = p.funds[msg.sender].sub(returnAmount);\n                    p.fundingAmount = p.fundingAmount.sub(returnAmount);\n                }\n            }\n            p.availableAmount = p.fundingAmount;\n            emit __funding(pid, msg.sender, msg.value);\n        }\n    }\n\n    function withdrawFund(bytes32 pid) public {\n        Project storage p = projects[pid];\n        \n        if (p.state == S.INITFUND && p.funds[msg.sender] > 0) {\n            p.fundingAmount = p.fundingAmount.sub(p.funds[msg.sender]);\n            p.availableAmount = p.fundingAmount;\n            msg.sender.transfer(p.funds[msg.sender]);\n            emit __withdraw(pid, msg.sender, p.funds[msg.sender], p.funds[msg.sender]);\n            p.funds[msg.sender] = 0;\n        }\n        else if (p.state == S.WITHDRAW && (p.funds[msg.sender] > 0 || (msg.sender == p.owner && p.commisionAmount != 0) ) ) {\n            uint256 withdrawAmount = Percent.mul(p.plScale, p.funds[msg.sender]);\n\n            //if owner, add commssion\n            if (msg.sender == p.owner) withdrawAmount = withdrawAmount + p.commisionAmount;\n            emit __withdraw(pid, msg.sender, p.funds[msg.sender], withdrawAmount);\n            p.availableAmount = p.availableAmount.sub(withdrawAmount);\n            msg.sender.transfer(withdrawAmount);\n            p.funds[msg.sender] = 0;\n        } else {\n            if (p.funds[msg.sender] == 0) revert(\"No money to withdraw\");\n            revert(\"Cannot withdraw\");\n        }\n    } \n\n    function release(bytes32 pid, address exchange, uint amount, bytes32 stage) public onlyContractOwner() {\n        Project storage p = projects[pid];\n        require(p.state == S.READY || p.state == S.RELEASED, \"100\"); //should be in ready or release state\n        require(p.releasedAmount + amount <= p.fundingAmount, \"102\"); //should not release fund larger than funding amount\n        if (p.releasePeriod[stage]!=0) revert(\"Already transfer for this period\");\n        if (p.state == S.READY) p.startTime = block.timestamp; //release signal in ready state (means first release), update start time to now\n        exchange.transfer(amount);\n        \n        p.releasedAmount = p.releasedAmount.add(amount);\n        p.availableAmount = p.availableAmount.sub(amount);\n        p.releasePeriod[stage] = amount;\n\n        emit __changeState(pid, p.state, S.RELEASED);\n        p.state = S.RELEASED;\n        emit __release(pid, exchange, amount, stage);\n    }\n\n    function retract(bytes32 pid, uint retractAmount) public onlyContractOwner() { //0.017 => scale=17 \n        Project storage p = projects[pid];\n        require(p.state == S.STOP, \"100\");\n        \n        p.availableAmount = p.availableAmount.add(retractAmount);\n        if (p.availableAmount > p.fundingAmount) {\n            uint commissionAmount = Percent.mul(p.commission, p.availableAmount.sub(p.fundingAmount));\n            p.plScale = Percent.percent(p.availableAmount - commissionAmount, p.fundingAmount);\n            p.commisionAmount = commissionAmount;\n        } else {\n            p.plScale = Percent.percent(p.availableAmount, p.fundingAmount);\n        }\n        p.retractAmount = retractAmount;\n        emit __changeState(pid, p.state, S.WITHDRAW);\n        p.state = S.WITHDRAW;\n        emit __retract(pid, p.plScale.num, p.plScale.den, p.availableAmount);\n    }\n\n\n    function voteStop(bytes32 pid, uint8 stop) public { //vote stop and check if larger than half of the fund\n        Project storage p = projects[pid];\n        require(p.state == S.READY || p.state == S.RELEASED , \"100\"); // except in init state, user can vote to stop or continue project\n\n        if (p.cancelRequests[msg.sender].id!=0){\n            p.cancelRequests[msg.sender].vote = stop;\n        } else {\n            uint id = p.cancelRequestArr.push(msg.sender);\n            p.cancelRequests[msg.sender].id = id;\n            p.cancelRequests[msg.sender].vote = stop;\n        }\n        \n        uint sum = 0;\n        for (uint i=0; i < p.cancelRequestArr.length; i++) {\n            address addr = p.cancelRequestArr[i];\n            if (p.cancelRequests[addr].vote == 1){\n                sum = sum.add(p.funds[addr]);\n            }\n        }\n        if (sum > (p.fundingAmount/2)) {\n            if (p.state == S.READY ){\n                emit __changeState(pid, p.state, S.WITHDRAW);\n                p.state = S.WITHDRAW;\n            } else {\n                emit __changeState(pid, p.state, S.STOP);\n                p.state = S.STOP;\n            }\n        }       \n        emit __voteStop(msg.sender, pid, p.cancelRequests[msg.sender].id);\n    }\n\n    function validateState(bytes32 pid) public {\n        // initfund but get deadline -> WITHDRAW\n        // ready but not release within 7 days -> WITHDRAW\n        // release but get lifetime -> STOP\n        Project storage p = projects[pid];\n        if (p.state == S.INITFUND){\n            if (isReachTime(p.deadline)) {\n                emit __changeState(pid, p.state, S.WITHDRAW);\n                p.state = S.WITHDRAW;\n            }\n        } else if (p.state == S.READY){\n            if (isReachTime(p.deadline + 7 days)) {\n                emit __changeState(pid, p.state, S.WITHDRAW);\n                p.state = S.WITHDRAW;\n            }\n        } else if (p.state == S.RELEASED){\n            if (isReachTime(p.deadline + p.lifeTime)) {\n                emit __changeState(pid, p.state, S.STOP);\n                p.state = S.STOP;\n            }\n        } \n    }\n    \n    function () external payable{\n        emit __receive(msg.sender, msg.value);\n    }\n\n    //GET function\n    function shouldValidateState(bytes32 pid) public view returns (bool r){\n        Project storage p = projects[pid];\n        if (p.state == S.INITFUND){\n            if (isReachTime(p.deadline)) return true;\n        } else if (p.state == S.READY){\n            if (isReachTime(p.deadline + 7 days)) return true;\n        } else if (p.state == S.RELEASED){\n            if (isReachTime(p.deadline + p.lifeTime)) return true;\n        } else {\n            return false;\n        }\n    }\n\n    function getProjectSize() public view returns (uint size) {\n        return PIDs.length;\n    }\n\n    function getProjectInfo(bytes32 pid) public view returns (address owner, uint target, uint max,uint fundingAmount, uint availableAmount, uint releasedAmount, uint retractAmount,\n        uint startTime, uint deadline, uint lifeTime, S state) {\n        Project storage p = projects[pid];\n        return (p.owner, p.target, p.max, p.fundingAmount, p.availableAmount, p.releasedAmount, p.retractAmount, p.startTime, p.deadline, p.lifeTime,p.state);\n    }\n\n    function getFunders(bytes32 pid) public view returns (address[] memory){\n        Project storage p = projects[pid];\n        return p.funder;\n    }\n\n    function getNumberOfFunder(bytes32 pid) public view returns (uint numFunder){\n        Project storage p = projects[pid];\n        return p.funder.length;\n    }\n\n    function getFundAmount(bytes32 pid, address funder) public view returns (uint){\n        Project storage p = projects[pid];\n        return p.funds[funder];\n    }\n\n    function getWithdrawAmount(bytes32 pid, address funder) public view returns (uint){\n        Project storage p = projects[pid];\n        uint withdrawAmount = Percent.mul(p.plScale, p.funds[funder]);\n        return withdrawAmount;\n    }\n\n}",
  "sourcePath": "/home/david/Autonomous/dhf-platform/dhf_smartcontract/contracts/HedgeFund.sol",
  "compiler": {
    "name": "solc",
    "version": "0.4.24+commit.e67f0147.Emscripten.clang"
  },
  "schemaVersion": "2.0.1",
  "updatedAt": "2018-10-16T09:09:49.009Z"
}