{
  "contractName": "HedgeFund",
  "abi": [
    {
      "constant": true,
      "inputs": [
        {
          "name": "",
          "type": "bytes32"
        }
      ],
      "name": "projects",
      "outputs": [
        {
          "name": "owner",
          "type": "address"
        },
        {
          "name": "target",
          "type": "uint256"
        },
        {
          "name": "max",
          "type": "uint256"
        },
        {
          "name": "fundingAmount",
          "type": "uint256"
        },
        {
          "name": "updatedAmmount",
          "type": "uint256"
        },
        {
          "name": "releasedAmount",
          "type": "uint256"
        },
        {
          "name": "startTime",
          "type": "uint256"
        },
        {
          "name": "deadline",
          "type": "uint256"
        },
        {
          "name": "lifeTime",
          "type": "uint256"
        },
        {
          "name": "state",
          "type": "uint8"
        },
        {
          "components": [
            {
              "name": "scale",
              "type": "uint256"
            },
            {
              "name": "denominator",
              "type": "uint256"
            }
          ],
          "name": "scale",
          "type": "tuple"
        }
      ],
      "payable": false,
      "stateMutability": "view",
      "type": "function"
    },
    {
      "inputs": [],
      "payable": false,
      "stateMutability": "nonpayable",
      "type": "constructor"
    },
    {
      "anonymous": false,
      "inputs": [
        {
          "indexed": false,
          "name": "sender",
          "type": "address"
        },
        {
          "indexed": false,
          "name": "owner",
          "type": "address"
        },
        {
          "indexed": false,
          "name": "pid",
          "type": "bytes32"
        }
      ],
      "name": "__init",
      "type": "event"
    },
    {
      "anonymous": false,
      "inputs": [
        {
          "indexed": false,
          "name": "pid",
          "type": "bytes32"
        },
        {
          "indexed": false,
          "name": "funder",
          "type": "address"
        },
        {
          "indexed": false,
          "name": "amount",
          "type": "uint256"
        }
      ],
      "name": "__funding",
      "type": "event"
    },
    {
      "anonymous": false,
      "inputs": [
        {
          "indexed": false,
          "name": "pid",
          "type": "bytes32"
        },
        {
          "indexed": false,
          "name": "requester",
          "type": "address"
        },
        {
          "indexed": false,
          "name": "fundAmount",
          "type": "uint256"
        },
        {
          "indexed": false,
          "name": "withdrawAmount",
          "type": "uint256"
        }
      ],
      "name": "__withdraw",
      "type": "event"
    },
    {
      "anonymous": false,
      "inputs": [
        {
          "indexed": false,
          "name": "pid",
          "type": "bytes32"
        },
        {
          "indexed": false,
          "name": "exchange",
          "type": "address"
        },
        {
          "indexed": false,
          "name": "amount",
          "type": "uint256"
        }
      ],
      "name": "__release",
      "type": "event"
    },
    {
      "anonymous": false,
      "inputs": [
        {
          "indexed": false,
          "name": "pid",
          "type": "bytes32"
        },
        {
          "indexed": false,
          "name": "from",
          "type": "uint256"
        },
        {
          "indexed": false,
          "name": "to",
          "type": "uint256"
        }
      ],
      "name": "__retract",
      "type": "event"
    },
    {
      "anonymous": false,
      "inputs": [
        {
          "indexed": false,
          "name": "sender",
          "type": "address"
        },
        {
          "indexed": false,
          "name": "pid",
          "type": "bytes32"
        },
        {
          "indexed": false,
          "name": "stop",
          "type": "uint8"
        }
      ],
      "name": "__voteStop",
      "type": "event"
    },
    {
      "anonymous": false,
      "inputs": [
        {
          "indexed": false,
          "name": "sender",
          "type": "address"
        },
        {
          "indexed": false,
          "name": "pid",
          "type": "bytes32"
        }
      ],
      "name": "__stop",
      "type": "event"
    },
    {
      "anonymous": false,
      "inputs": [
        {
          "indexed": false,
          "name": "pid",
          "type": "bytes32"
        },
        {
          "indexed": false,
          "name": "from",
          "type": "bytes32"
        },
        {
          "indexed": false,
          "name": "to",
          "type": "bytes32"
        }
      ],
      "name": "__changeState",
      "type": "event"
    },
    {
      "constant": false,
      "inputs": [
        {
          "name": "max",
          "type": "uint256"
        },
        {
          "name": "deadline",
          "type": "uint256"
        },
        {
          "name": "lifeTime",
          "type": "uint256"
        },
        {
          "name": "owner",
          "type": "address"
        },
        {
          "name": "pid",
          "type": "bytes32"
        }
      ],
      "name": "initProject",
      "outputs": [],
      "payable": false,
      "stateMutability": "nonpayable",
      "type": "function"
    },
    {
      "constant": false,
      "inputs": [
        {
          "name": "pid",
          "type": "bytes32"
        }
      ],
      "name": "stopProject",
      "outputs": [],
      "payable": false,
      "stateMutability": "nonpayable",
      "type": "function"
    },
    {
      "constant": true,
      "inputs": [
        {
          "name": "max",
          "type": "uint256"
        },
        {
          "name": "balance",
          "type": "uint256"
        }
      ],
      "name": "isReachMax",
      "outputs": [
        {
          "name": "r",
          "type": "bool"
        }
      ],
      "payable": false,
      "stateMutability": "pure",
      "type": "function"
    },
    {
      "constant": true,
      "inputs": [
        {
          "name": "deadline",
          "type": "uint256"
        }
      ],
      "name": "isReachDeadline",
      "outputs": [
        {
          "name": "",
          "type": "bool"
        }
      ],
      "payable": false,
      "stateMutability": "view",
      "type": "function"
    },
    {
      "constant": true,
      "inputs": [
        {
          "name": "time",
          "type": "uint256"
        }
      ],
      "name": "isReachlifeTime",
      "outputs": [
        {
          "name": "",
          "type": "bool"
        }
      ],
      "payable": false,
      "stateMutability": "view",
      "type": "function"
    },
    {
      "constant": false,
      "inputs": [
        {
          "name": "pid",
          "type": "bytes32"
        }
      ],
      "name": "fundProject",
      "outputs": [],
      "payable": true,
      "stateMutability": "payable",
      "type": "function"
    },
    {
      "constant": false,
      "inputs": [
        {
          "name": "pid",
          "type": "bytes32"
        }
      ],
      "name": "withdrawFund",
      "outputs": [],
      "payable": false,
      "stateMutability": "nonpayable",
      "type": "function"
    },
    {
      "constant": false,
      "inputs": [
        {
          "name": "pid",
          "type": "bytes32"
        },
        {
          "name": "exchange",
          "type": "address"
        },
        {
          "name": "amount",
          "type": "uint256"
        }
      ],
      "name": "release",
      "outputs": [],
      "payable": false,
      "stateMutability": "nonpayable",
      "type": "function"
    },
    {
      "constant": false,
      "inputs": [
        {
          "name": "pid",
          "type": "bytes32"
        },
        {
          "name": "scale",
          "type": "uint256"
        },
        {
          "name": "denominator",
          "type": "uint256"
        }
      ],
      "name": "retract",
      "outputs": [],
      "payable": false,
      "stateMutability": "nonpayable",
      "type": "function"
    },
    {
      "constant": false,
      "inputs": [
        {
          "name": "pid",
          "type": "bytes32"
        },
        {
          "name": "stop",
          "type": "uint8"
        }
      ],
      "name": "voteStop",
      "outputs": [],
      "payable": false,
      "stateMutability": "nonpayable",
      "type": "function"
    },
    {
      "constant": true,
      "inputs": [],
      "name": "getProjectSize",
      "outputs": [
        {
          "name": "size",
          "type": "uint256"
        }
      ],
      "payable": false,
      "stateMutability": "view",
      "type": "function"
    }
  ],
  "bytecode": "0x608060405234801561001057600080fd5b50336000806101000a81548173ffffffffffffffffffffffffffffffffffffffff021916908373ffffffffffffffffffffffffffffffffffffffff160217905550612486806100606000396000f3006080604052600436106100b9576000357c0100000000000000000000000000000000000000000000000000000000900463ffffffff168062444e0c146100be5780634a83b226146100e95780635c327a581461010d578063755db39014610152578063a6edb466146101c1578063ad1b36a8146101ff578063b96ea12d1461024e578063bdeae97f14610313578063c75b7b5414610358578063c874c61e14610389578063d79f2531146103ce578063f5b16b84146103ff575b600080fd5b3480156100ca57600080fd5b506100d361045a565b6040518082815260200191505060405180910390f35b61010b6004803603810190808035600019169060200190929190505050610467565b005b34801561011957600080fd5b5061013860048036038101908080359060200190929190505050610c63565b604051808215151515815260200191505060405180910390f35b34801561015e57600080fd5b506101bf600480360381019080803590602001909291908035906020019092919080359060200190929190803573ffffffffffffffffffffffffffffffffffffffff1690602001909291908035600019169060200190929190505050610c8b565b005b3480156101cd57600080fd5b506101fd6004803603810190808035600019169060200190929190803560ff169060200190929190505050610fd4565b005b34801561020b57600080fd5b506102346004803603810190808035906020019092919080359060200190929190505050611173565b604051808215151515815260200191505060405180910390f35b34801561025a57600080fd5b5061027d600480360381019080803560001916906020019092919050505061119d565b604051808c73ffffffffffffffffffffffffffffffffffffffff1673ffffffffffffffffffffffffffffffffffffffff1681526020018b81526020018a81526020018981526020018881526020018781526020018681526020018581526020018481526020018360058111156102ef57fe5b60ff1681526020018281526020019b50505050505050505050505060405180910390f35b34801561031f57600080fd5b5061035660048036038101908080356000191690602001909291908035906020019092919080359060200190929190505050611242565b005b34801561036457600080fd5b506103876004803603810190808035600019169060200190929190505050611566565b005b34801561039557600080fd5b506103b46004803603810190808035906020019092919050505061196b565b604051808215151515815260200191505060405180910390f35b3480156103da57600080fd5b506103fd6004803603810190808035600019169060200190929190505050611988565b005b34801561040b57600080fd5b506104586004803603810190808035600019169060200190929190803573ffffffffffffffffffffffffffffffffffffffff16906020019092919080359060200190929190505050612034565b005b6000600280549050905090565b600080600060016000856000191660001916815260200190815260200160002092506000600581111561049657fe5b83600b0160009054906101000a900460ff1660058111156104b357fe5b14806104e65750600160058111156104c757fe5b83600b0160009054906101000a900460ff1660058111156104e457fe5b145b151561055a576040517f08c379a00000000000000000000000000000000000000000000000000000000081526004018080602001828103825260038152602001807f313030000000000000000000000000000000000000000000000000000000000081525060200191505060405180910390fd5b3491506000600581111561056a57fe5b83600b0160009054906101000a900460ff16600581111561058757fe5b14156107685761059a8360070154610c63565b156106a057600583600b0160006101000a81548160ff021916908360058111156105c057fe5b02179055503373ffffffffffffffffffffffffffffffffffffffff166108fc349081150290604051600060405180830381858888f1935050505015801561060b573d6000803e3d6000fd5b507f7e3c6c45da9072f555e6c64db8fdcfbc26c0fc03b6d9985f1ac574abdfde75d084604051808260001916600019168152602001807f494e495446554e44000000000000000000000000000000000000000000000000815250602001807f574954484452415700000000000000000000000000000000000000000000000081525060200191505060405180910390a1610c5d565b8260010154836003015410151561076757600183600b0160006101000a81548160ff021916908360058111156106d257fe5b02179055507f7e3c6c45da9072f555e6c64db8fdcfbc26c0fc03b6d9985f1ac574abdfde75d084604051808260001916600019168152602001807f494e495446554e44000000000000000000000000000000000000000000000000815250602001807f415050524f56454400000000000000000000000000000000000000000000000081525060200191505060405180910390a15b5b6001600581111561077557fe5b83600b0160009054906101000a900460ff16600581111561079257fe5b14156108c2576107a58360070154610c63565b156108c157600283600b0160006101000a81548160ff021916908360058111156107cb57fe5b02179055503373ffffffffffffffffffffffffffffffffffffffff166108fc349081150290604051600060405180830381858888f19350505050158015610816573d6000803e3d6000fd5b50826003015483600401819055504283600601819055507f7e3c6c45da9072f555e6c64db8fdcfbc26c0fc03b6d9985f1ac574abdfde75d084604051808260001916600019168152602001807f415050524f564544000000000000000000000000000000000000000000000000815250602001807f524541445900000000000000000000000000000000000000000000000000000081525060200191505060405180910390a1610c5d565b5b6000341115610c5c5760008360090160003373ffffffffffffffffffffffffffffffffffffffff1673ffffffffffffffffffffffffffffffffffffffff168152602001908152602001600020541015156109a457348360090160003373ffffffffffffffffffffffffffffffffffffffff1673ffffffffffffffffffffffffffffffffffffffff16815260200190815260200160002054018360090160003373ffffffffffffffffffffffffffffffffffffffff1673ffffffffffffffffffffffffffffffffffffffff168152602001908152602001600020819055506109eb565b348360090160003373ffffffffffffffffffffffffffffffffffffffff1673ffffffffffffffffffffffffffffffffffffffff168152602001908152602001600020819055505b348360030154018360030181905550610a0c83600201548460030154611173565b15610be057600283600b0160006101000a81548160ff02191690836005811115610a3257fe5b02179055504283600601819055507f7e3c6c45da9072f555e6c64db8fdcfbc26c0fc03b6d9985f1ac574abdfde75d084604051808260001916600019168152602001807f415050524f564544000000000000000000000000000000000000000000000000815250602001807f524541445900000000000000000000000000000000000000000000000000000081525060200191505060405180910390a1600a83600201548460030154031115610bd257600a83600201548460030154030390503373ffffffffffffffffffffffffffffffffffffffff166108fc829081150290604051600060405180830381858888f19350505050158015610b38573d6000803e3d6000fd5b50808360090160003373ffffffffffffffffffffffffffffffffffffffff1673ffffffffffffffffffffffffffffffffffffffff16815260200190815260200160002054038360090160003373ffffffffffffffffffffffffffffffffffffffff1673ffffffffffffffffffffffffffffffffffffffff168152602001908152602001600020819055508083600301540383600301819055505b826003015483600401819055505b7ff0db6323ee6b8742a2216f8f9c03c6fd9b5c528baf301e755df27dfc616a7cf28433846040518084600019166000191681526020018373ffffffffffffffffffffffffffffffffffffffff1673ffffffffffffffffffffffffffffffffffffffff168152602001828152602001935050505060405180910390a15b5b50505050565b60008082118015610c7357508142115b15610c815760019050610c86565b600090505b919050565b610c936123a4565b610c9b612426565b33826000019073ffffffffffffffffffffffffffffffffffffffff16908173ffffffffffffffffffffffffffffffffffffffff168152505060008261012001906005811115610ce657fe5b90816005811115610cf357fe5b8152505060008260a0018181525050600a816000018181525050600181602001818152505080826101400181905250858260e00181815250508482610100018181525050868260400181815250506000826060018181525050600082608001818152505060008260a00181815250508160016000856000191660001916815260200190815260200160002060008201518160000160006101000a81548173ffffffffffffffffffffffffffffffffffffffff021916908373ffffffffffffffffffffffffffffffffffffffff1602179055506020820151816001015560408201518160020155606082015181600301556080820151816004015560a0820151816005015560c0820151816006015560e08201518160070155610100820151816008015561012082015181600b0160006101000a81548160ff02191690836005811115610e3b57fe5b021790555061014082015181600c016000820151816000015560208201518160010155505090505060028390806001815401808255809150509060018203906000526020600020016000909192909190915090600019169055507f97f5cb2f3a28f42b1fa758036fdb9f869fe47d63769c44de955b5952a545339b338585604051808473ffffffffffffffffffffffffffffffffffffffff1673ffffffffffffffffffffffffffffffffffffffff1681526020018373ffffffffffffffffffffffffffffffffffffffff1673ffffffffffffffffffffffffffffffffffffffff1681526020018260001916600019168152602001935050505060405180910390a17f7e3c6c45da9072f555e6c64db8fdcfbc26c0fc03b6d9985f1ac574abdfde75d083604051808260001916600019168152602001807f4e554c4c00000000000000000000000000000000000000000000000000000000815250602001807f494e495446554e4400000000000000000000000000000000000000000000000081525060200191505060405180910390a150505050505050565b600060016000846000191660001916815260200190815260200160002090506000600581111561100057fe5b81600b0160009054906101000a900460ff16600581111561101d57fe5b14151515611093576040517f08c379a00000000000000000000000000000000000000000000000000000000081526004018080602001828103825260038152602001807f313030000000000000000000000000000000000000000000000000000000000081525060200191505060405180910390fd5b8181600a0160003373ffffffffffffffffffffffffffffffffffffffff1673ffffffffffffffffffffffffffffffffffffffff16815260200190815260200160002060006101000a81548160ff021916908360ff1602179055507f94f98679b5088bf35a52c2ef8cdec66103c9fb6bef1161f88e43aa0f1a90f4e7338484604051808473ffffffffffffffffffffffffffffffffffffffff1673ffffffffffffffffffffffffffffffffffffffff16815260200183600019166000191681526020018260ff1660ff168152602001935050505060405180910390a1505050565b600080831180156111845750828210155b156111925760019050611197565b600090505b92915050565b60016020528060005260406000206000915090508060000160009054906101000a900473ffffffffffffffffffffffffffffffffffffffff169080600101549080600201549080600301549080600401549080600501549080600601549080600701549080600801549080600b0160009054906101000a900460ff169080600c016040805190810160405290816000820154815260200160018201548152505090508b565b600061124c612426565b3373ffffffffffffffffffffffffffffffffffffffff166000809054906101000a900473ffffffffffffffffffffffffffffffffffffffff1673ffffffffffffffffffffffffffffffffffffffff16141515611310576040517f08c379a00000000000000000000000000000000000000000000000000000000081526004018080602001828103825260038152602001807f313031000000000000000000000000000000000000000000000000000000000081525060200191505060405180910390fd5b60016000866000191660001916815260200190815260200160002091506003600581111561133a57fe5b82600b0160009054906101000a900460ff16600581111561135757fe5b148061138a57506004600581111561136b57fe5b82600b0160009054906101000a900460ff16600581111561138857fe5b145b15156113fe576040517f08c379a00000000000000000000000000000000000000000000000000000000081526004018080602001828103825260038152602001807f313030000000000000000000000000000000000000000000000000000000000081525060200191505060405180910390fd5b60058081111561140a57fe5b82600b0160009054906101000a900460ff16600581111561142757fe5b505083816000018181525050828160200181815250508082600c01600082015181600001556020820151816001015590505081600c016001015482600c016000015483600301540281151561147857fe5b0482600401819055507f7e3c6c45da9072f555e6c64db8fdcfbc26c0fc03b6d9985f1ac574abdfde75d085604051808260001916600019168152602001807f52454c454153457c53544f500000000000000000000000000000000000000000815250602001807f574954484452415700000000000000000000000000000000000000000000000081525060200191505060405180910390a17f17885106240682a1d6be45cb620255bf1230eb0c2bf02451d1e80a97a6c0ceec858585604051808460001916600019168152602001838152602001828152602001935050505060405180910390a15050505050565b60008160016000826000191660001916815260200190815260200160002060000160009054906101000a900473ffffffffffffffffffffffffffffffffffffffff1673ffffffffffffffffffffffffffffffffffffffff163373ffffffffffffffffffffffffffffffffffffffff16148061162d57503373ffffffffffffffffffffffffffffffffffffffff166000809054906101000a900473ffffffffffffffffffffffffffffffffffffffff1673ffffffffffffffffffffffffffffffffffffffff16145b15156116a1576040517f08c379a00000000000000000000000000000000000000000000000000000000081526004018080602001828103825260038152602001807f313031000000000000000000000000000000000000000000000000000000000081525060200191505060405180910390fd5b60016000846000191660001916815260200190815260200160002091507f8544dfa7b50093636ee3fe1d28f5844df5af6d8beb5ba4e60bafa009dfba28a23384604051808373ffffffffffffffffffffffffffffffffffffffff1673ffffffffffffffffffffffffffffffffffffffff16815260200182600019166000191681526020019250505060405180910390a16000600581111561173e57fe5b82600b0160009054906101000a900460ff16600581111561175b57fe5b148061178e57506001600581111561176f57fe5b82600b0160009054906101000a900460ff16600581111561178c57fe5b145b806117c05750600260058111156117a157fe5b82600b0160009054906101000a900460ff1660058111156117be57fe5b145b806117f157506005808111156117d257fe5b82600b0160009054906101000a900460ff1660058111156117ef57fe5b145b156118b0577f7e3c6c45da9072f555e6c64db8fdcfbc26c0fc03b6d9985f1ac574abdfde75d083604051808260001916600019168152602001807f5f00000000000000000000000000000000000000000000000000000000000000815250602001807f53544f500000000000000000000000000000000000000000000000000000000081525060200191505060405180910390a1600582600b0160006101000a81548160ff021916908360058111156118a657fe5b0217905550611966565b7f7e3c6c45da9072f555e6c64db8fdcfbc26c0fc03b6d9985f1ac574abdfde75d083604051808260001916600019168152602001807f52454c454153457c53544f500000000000000000000000000000000000000000815250602001807f53544f500000000000000000000000000000000000000000000000000000000081525060200191505060405180910390a1600482600b0160006101000a81548160ff0219169083600581111561196057fe5b02179055505b505050565b60008142111561197e5760019050611983565b600090505b919050565b60008060016000846000191660001916815260200190815260200160002091506119bb826006015483600801540161196b565b15611ad957600160058111156119cd57fe5b82600b0160009054906101000a900460ff1660058111156119ea57fe5b1480611a1d5750600260058111156119fe57fe5b82600b0160009054906101000a900460ff166005811115611a1b57fe5b145b15611ad857600582600b0160006101000a81548160ff02191690836005811115611a4357fe5b02179055507f7e3c6c45da9072f555e6c64db8fdcfbc26c0fc03b6d9985f1ac574abdfde75d083604051808260001916600019168152602001807f415050524f5645447c5245414459000000000000000000000000000000000000815250602001807f574954484452415700000000000000000000000000000000000000000000000081525060200191505060405180910390a15b5b60006005811115611ae657fe5b82600b0160009054906101000a900460ff166005811115611b0357fe5b148015611b51575060008260090160003373ffffffffffffffffffffffffffffffffffffffff1673ffffffffffffffffffffffffffffffffffffffff16815260200190815260200160002054115b15611d7f578160090160003373ffffffffffffffffffffffffffffffffffffffff1673ffffffffffffffffffffffffffffffffffffffff16815260200190815260200160002054826004015403826004018190555060008260090160003373ffffffffffffffffffffffffffffffffffffffff1673ffffffffffffffffffffffffffffffffffffffff168152602001908152602001600020819055503373ffffffffffffffffffffffffffffffffffffffff166108fc8360090160003373ffffffffffffffffffffffffffffffffffffffff1673ffffffffffffffffffffffffffffffffffffffff168152602001908152602001600020549081150290604051600060405180830381858888f19350505050158015611c74573d6000803e3d6000fd5b507f10d7441b300e3a1a1c45dea9fea0cf44680434ca5ed40207f0fd018c7e3dde7183338460090160003373ffffffffffffffffffffffffffffffffffffffff1673ffffffffffffffffffffffffffffffffffffffff168152602001908152602001600020548560090160003373ffffffffffffffffffffffffffffffffffffffff1673ffffffffffffffffffffffffffffffffffffffff168152602001908152602001600020546040518085600019166000191681526020018473ffffffffffffffffffffffffffffffffffffffff1673ffffffffffffffffffffffffffffffffffffffff16815260200183815260200182815260200194505050505060405180910390a161202f565b600580811115611d8b57fe5b82600b0160009054906101000a900460ff166005811115611da857fe5b148015611df6575060008260090160003373ffffffffffffffffffffffffffffffffffffffff1673ffffffffffffffffffffffffffffffffffffffff16815260200190815260200160002054115b15611fc05781600c016001015482600c01600001548360090160003373ffffffffffffffffffffffffffffffffffffffff1673ffffffffffffffffffffffffffffffffffffffff1681526020019081526020016000205402811515611e5757fe5b04905080826004015403826004018190555060008260090160003373ffffffffffffffffffffffffffffffffffffffff1673ffffffffffffffffffffffffffffffffffffffff168152602001908152602001600020819055503373ffffffffffffffffffffffffffffffffffffffff166108fc829081150290604051600060405180830381858888f19350505050158015611ef6573d6000803e3d6000fd5b507f10d7441b300e3a1a1c45dea9fea0cf44680434ca5ed40207f0fd018c7e3dde7183338460090160003373ffffffffffffffffffffffffffffffffffffffff1673ffffffffffffffffffffffffffffffffffffffff16815260200190815260200160002054846040518085600019166000191681526020018473ffffffffffffffffffffffffffffffffffffffff1673ffffffffffffffffffffffffffffffffffffffff16815260200183815260200182815260200194505050505060405180910390a161202e565b6040517f08c379a000000000000000000000000000000000000000000000000000000000815260040180806020018281038252601d8152602001807f43616e6e6f74207769746864726177206174207468697320737461746500000081525060200191505060405180910390fd5b5b505050565b600060016000856000191660001916815260200190815260200160002090506001600581111561206057fe5b81600b0160009054906101000a900460ff16600581111561207d57fe5b14806120b057506002600581111561209157fe5b81600b0160009054906101000a900460ff1660058111156120ae57fe5b145b806120e25750600360058111156120c357fe5b81600b0160009054906101000a900460ff1660058111156120e057fe5b145b1515612156576040517f08c379a00000000000000000000000000000000000000000000000000000000081526004018080602001828103825260038152602001807f313030000000000000000000000000000000000000000000000000000000000081525060200191505060405180910390fd5b806003015482826005015401111515156121d8576040517f08c379a00000000000000000000000000000000000000000000000000000000081526004018080602001828103825260038152602001807f313032000000000000000000000000000000000000000000000000000000000081525060200191505060405180910390fd5b600160058111156121e557fe5b81600b0160009054906101000a900460ff16600581111561220257fe5b1415612212574281600601819055505b8273ffffffffffffffffffffffffffffffffffffffff166108fc839081150290604051600060405180830381858888f19350505050158015612258573d6000803e3d6000fd5b508181600501540181600501819055506003600581111561227557fe5b81600b0160009054906101000a900460ff16600581111561229257fe5b50507f7e3c6c45da9072f555e6c64db8fdcfbc26c0fc03b6d9985f1ac574abdfde75d084604051808260001916600019168152602001807f415050524f5645447c52454144597c52454c4541534500000000000000000000815250602001807f52454c454153450000000000000000000000000000000000000000000000000081525060200191505060405180910390a17f28e2097d05e84b332b656b72cb988576e7f690111246049dad9fa10a3f9801208484846040518084600019166000191681526020018373ffffffffffffffffffffffffffffffffffffffff1673ffffffffffffffffffffffffffffffffffffffff168152602001828152602001935050505060405180910390a150505050565b61018060405190810160405280600073ffffffffffffffffffffffffffffffffffffffff16815260200160008152602001600081526020016000815260200160008152602001600081526020016000815260200160008152602001600081526020016000600581111561241357fe5b8152602001612420612440565b81525090565b604080519081016040528060008152602001600081525090565b6040805190810160405280600081526020016000815250905600a165627a7a723058200bc13f3af76fa71a540055554fddfe624ed1c266164509c78607a164125635a70029",
  "source": "/**\n    Author: vvstdung89\n    Version: 0.01\n    Date: 22 August 2018\n\n    TODO:\n        Optional: Vote 50% -> stop project (centralize accounting -> smart contract accounting)\n        Function to read data|debug\n    CONSIDER:\n        storage vs memory\n        Test: with large number of ether & scale\n    Note:\n        Project timeout: in release state, centralized system need to retract before user can withdraw!!!\n*/\n\npragma solidity ^0.4.2;\n\n//100: State Error\n//101: Unauthorization\n//102: release wrong amount\n\ncontract HedgeFund {\n    //Parameters\n    enum S { INITFUND, APPROVED, READY, RELEASED, STOP, WITHDRAW }\n    \n    struct ScaleFund { // userWithdrawFund = (userFund * scale)/denominator\n        uint scale;\n        uint denominator;\n    }\n\n    struct Project {\n        address owner;\n        uint target;\n        uint max;\n        uint fundingAmount;\n        uint updatedAmmount;\n\n        uint releasedAmount;\n        uint startTime;\n        uint deadline;\n        uint lifeTime;\n\n        mapping(address => uint) funds;\n        mapping(address => uint8) cancelRequests;\n        S state;\n        ScaleFund scale;\n    }\n\n    address contractOwner;\n    mapping(bytes32 => Project) public projects;\n    bytes32[] PIDs;\n\n    //event\n    event __init(address sender, address owner, bytes32 pid);\n    event __funding(bytes32 pid, address funder,  uint amount);\n    event __withdraw(bytes32 pid, address requester, uint fundAmount, uint withdrawAmount);\n    event __release(bytes32 pid, address exchange, uint amount);\n    event __retract(bytes32 pid, uint from, uint to);\n    event __voteStop(address sender, bytes32 pid, uint8 stop);\n    event __stop(address sender, bytes32 pid);\n    event __changeState(bytes32 pid, bytes32 from, bytes32 to);\n\n    modifier onlyContractOwner() {\n        require(contractOwner == msg.sender, \"101\");\n        _;\n    }\n\n    modifier onlyProjectOwner(bytes32 pid) {\n        require(msg.sender == projects[pid].owner || contractOwner == msg.sender, \"101\");\n        _;\n    }\n\n    //Constructor\n    constructor() public {\n        contractOwner = msg.sender;\n    }\n\n    //POST function\n    function initProject(uint max, uint deadline, uint lifeTime, address owner, bytes32 pid) public {\n        Project memory p;\n        \n        p.owner = msg.sender;\n        p.state = S.INITFUND;\n        p.releasedAmount = 0;\n\n        ScaleFund memory scaleF;\n        scaleF.scale = 10;\n        scaleF.denominator = 1;\n        p.scale = scaleF;\n\n        p.deadline = deadline;\n        p.lifeTime = lifeTime;\n        \n        p.max = max;\n        p.fundingAmount = 0;\n        p.updatedAmmount = 0;\n        p.releasedAmount = 0;\n\n        projects[pid] = p;\n        PIDs.push(pid);\n        emit __init(msg.sender, owner, pid);\n        emit __changeState(pid, \"NULL\", \"INITFUND\");\n    }\n    \n    function stopProject(bytes32 pid) public onlyProjectOwner(pid) {\n        Project storage p = projects[pid];\n        emit __stop(msg.sender, pid);\n        if (p.state == S.INITFUND || p.state == S.APPROVED || p.state == S.READY || p.state == S.WITHDRAW){\n            emit __changeState(pid, \"_\", \"STOP\");\n            p.state = S.WITHDRAW;\n        }else {\n            emit __changeState(pid, \"RELEASE|STOP\", \"STOP\");\n            p.state = S.STOP;\n        }\n    }\n\n    function isReachMax(uint max,uint  balance) public pure returns (bool r) {\n        if (max > 0 && balance >= max) return true;\n        else return false;\n    }\n    \n    function isReachDeadline(uint deadline) public view returns (bool) {\n        if (deadline > 0 && now > deadline) return true; //Using timestamp in eth blockchain???\n        else return false;\n    }\n\n    function isReachlifeTime(uint time) public view returns (bool) {\n        if (now > time) return true; //Using timestamp in eth blockchain???\n        else return false;\n    }\n\n    function fundProject(bytes32 pid) public payable {\n        Project storage p = projects[pid];\n        require(p.state == S.INITFUND || p.state == S.APPROVED, \"100\");\n\n        uint fundingAmount = msg.value;\n\n        if (p.state == S.INITFUND){\n            if (isReachDeadline(p.deadline)){\n                p.state = S.WITHDRAW;\n                msg.sender.transfer(msg.value);\n                emit __changeState(pid, \"INITFUND\", \"WITHDRAW\");\n                return;\n            } else if (p.fundingAmount >= p.target) {\n                p.state = S.APPROVED;\n                emit __changeState(pid, \"INITFUND\", \"APPROVED\");\n            }\n        } \n        \n        if (p.state == S.APPROVED ){ //funding is reach deadline - do nothing\n            if (isReachDeadline(p.deadline)){\n                p.state = S.READY;\n                msg.sender.transfer(msg.value);\n                p.updatedAmmount = p.fundingAmount;\n                p.startTime = now;\n                emit __changeState(pid, \"APPROVED\", \"READY\");\n                return;\n            } \n        } \n        \n        //update fund\n        if ( msg.value > 0 ) {\n            if (p.funds[msg.sender] >= 0)\n                p.funds[msg.sender] = p.funds[msg.sender] + msg.value;\n            else\n                p.funds[msg.sender] = msg.value;\n            p.fundingAmount = p.fundingAmount + msg.value;\n\n            //recheck the balance if fund is larger max\n            if ( isReachMax(p.max, p.fundingAmount) ){\n                p.state = S.READY;\n                p.startTime = now;\n                emit __changeState(pid, \"APPROVED\", \"READY\");\n                if (p.fundingAmount - p.max > 10) { //TODO: check unit\n                    uint retractAmount = p.fundingAmount - p.max - 10;\n                    msg.sender.transfer(retractAmount);\n                    p.funds[msg.sender] = p.funds[msg.sender] - retractAmount;\n                    p.fundingAmount = p.fundingAmount - retractAmount;\n                }\n                p.updatedAmmount = p.fundingAmount;\n            }\n            emit __funding(pid, msg.sender, fundingAmount);\n        }\n    }\n\n    function withdrawFund(bytes32 pid) public {\n        Project storage p = projects[pid];\n        \n        if (isReachlifeTime(p.lifeTime + p.startTime) ){ //if this project reach lifeTime\n            if (p.state == S.APPROVED || p.state == S.READY){ //and the state is in APPROVE or READY, it should allow user to withdraw\n                p.state = S.WITHDRAW;\n                emit __changeState(pid, \"APPROVED|READY\", \"WITHDRAW\");\n            }\n        }\n            \n        if ( p.state == S.INITFUND && p.funds[msg.sender] > 0) {\n            p.updatedAmmount = p.updatedAmmount - p.funds[msg.sender];\n            p.funds[msg.sender] = 0;\n            msg.sender.transfer(p.funds[msg.sender]);\n            emit __withdraw(pid, msg.sender, p.funds[msg.sender], p.funds[msg.sender]);\n        } else  if ( p.state == S.WITHDRAW && p.funds[msg.sender] > 0) {\n            uint256 withdrawAmount = (p.funds[msg.sender]*p.scale.scale)/p.scale.denominator;\n            p.updatedAmmount = p.updatedAmmount - withdrawAmount;\n            p.funds[msg.sender] = 0;\n            msg.sender.transfer(withdrawAmount);\n            emit __withdraw(pid, msg.sender, p.funds[msg.sender], withdrawAmount);\n        } else {\n            revert(\"Cannot withdraw at this state\");\n        }\n    } \n\n    function release(bytes32 pid, address exchange, uint amount) public {\n        Project storage p = projects[pid];\n        require(p.state == S.APPROVED || p.state == S.READY || p.state == S.RELEASED, \"100\"); //should be in ready or release state\n        require(p.releasedAmount + amount <= p.fundingAmount, \"102\"); //should not release fund larger than funding amount\n\n        if (p.state == S.APPROVED) p.startTime = now; //release signal in approved state (means start project anyway), update start time to now\n\n        exchange.transfer(amount);\n        p.releasedAmount = p.releasedAmount + amount;\n        p.state == S.RELEASED;\n        emit __changeState(pid, \"APPROVED|READY|RELEASE\", \"RELEASE\");\n        emit __release(pid, exchange, amount);\n        \n    }\n\n    function retract(bytes32 pid, uint scale, uint denominator) public onlyContractOwner() { //0.017 => scale=17 \n        Project storage p = projects[pid];\n        require(p.state == S.RELEASED || p.state == S.STOP, \"100\");\n        p.state == S.WITHDRAW;\n        ScaleFund memory scaleF;\n        scaleF.scale = scale;\n        scaleF.denominator = denominator;\n        p.scale = scaleF;\n        p.updatedAmmount = (p.fundingAmount*p.scale.scale)/p.scale.denominator;\n        emit __changeState(pid, \"RELEASE|STOP\", \"WITHDRAW\");\n        emit __retract(pid, scale, denominator);\n    }\n\n    function voteStop(bytes32 pid, uint8 stop) public {\n        Project storage p = projects[pid];\n        require(p.state != S.INITFUND, \"100\"); // except in init state, user can vote to stop or continue project\n        p.cancelRequests[msg.sender] = stop;\n        emit __voteStop(msg.sender, pid, stop);\n    }\n    \n    //GET function\n    function getProjectSize() public view returns (uint size) {\n        return PIDs.length;\n    }\n\n}",
  "sourcePath": "/home/david/Autonomous/dhf-platform/dhf_smartcontract/contracts/HedgeFund.sol",
  "compiler": {
    "name": "solc",
    "version": "0.4.24+commit.e67f0147.Emscripten.clang"
  },
  "schemaVersion": "2.0.1",
  "updatedAt": "2018-09-12T03:14:05.565Z"
}