{
  "contractName": "HedgeFund",
  "abi": [
    {
      "constant": true,
      "inputs": [
        {
          "name": "",
          "type": "uint256"
        }
      ],
      "name": "projects",
      "outputs": [
        {
          "name": "owner",
          "type": "address"
        },
        {
          "name": "target",
          "type": "uint256"
        },
        {
          "name": "max",
          "type": "uint256"
        },
        {
          "name": "fundingAmount",
          "type": "uint256"
        },
        {
          "name": "updatedAmmount",
          "type": "uint256"
        },
        {
          "name": "releasedAmount",
          "type": "uint256"
        },
        {
          "name": "startTime",
          "type": "uint256"
        },
        {
          "name": "deadline",
          "type": "uint256"
        },
        {
          "name": "lifeTime",
          "type": "uint256"
        },
        {
          "name": "state",
          "type": "uint8"
        },
        {
          "components": [
            {
              "name": "scale",
              "type": "uint256"
            },
            {
              "name": "denominator",
              "type": "uint256"
            }
          ],
          "name": "scale",
          "type": "tuple"
        }
      ],
      "payable": false,
      "stateMutability": "view",
      "type": "function"
    },
    {
      "inputs": [],
      "payable": false,
      "stateMutability": "nonpayable",
      "type": "constructor"
    },
    {
      "anonymous": false,
      "inputs": [
        {
          "indexed": false,
          "name": "owner",
          "type": "address"
        },
        {
          "indexed": false,
          "name": "pid",
          "type": "uint256"
        }
      ],
      "name": "__init",
      "type": "event"
    },
    {
      "anonymous": false,
      "inputs": [
        {
          "indexed": false,
          "name": "pid",
          "type": "uint256"
        },
        {
          "indexed": false,
          "name": "funder",
          "type": "address"
        },
        {
          "indexed": false,
          "name": "amount",
          "type": "uint256"
        }
      ],
      "name": "__funding",
      "type": "event"
    },
    {
      "anonymous": false,
      "inputs": [
        {
          "indexed": false,
          "name": "pid",
          "type": "uint256"
        },
        {
          "indexed": false,
          "name": "requester",
          "type": "address"
        },
        {
          "indexed": false,
          "name": "fundAmount",
          "type": "uint256"
        },
        {
          "indexed": false,
          "name": "withdrawAmount",
          "type": "uint256"
        }
      ],
      "name": "__withdraw",
      "type": "event"
    },
    {
      "anonymous": false,
      "inputs": [
        {
          "indexed": false,
          "name": "pid",
          "type": "uint256"
        },
        {
          "indexed": false,
          "name": "exchange",
          "type": "address"
        },
        {
          "indexed": false,
          "name": "amount",
          "type": "uint256"
        }
      ],
      "name": "__release",
      "type": "event"
    },
    {
      "anonymous": false,
      "inputs": [
        {
          "indexed": false,
          "name": "pid",
          "type": "uint256"
        },
        {
          "indexed": false,
          "name": "from",
          "type": "uint256"
        },
        {
          "indexed": false,
          "name": "to",
          "type": "uint256"
        }
      ],
      "name": "__retract",
      "type": "event"
    },
    {
      "anonymous": false,
      "inputs": [
        {
          "indexed": false,
          "name": "sender",
          "type": "address"
        },
        {
          "indexed": false,
          "name": "pid",
          "type": "uint256"
        },
        {
          "indexed": false,
          "name": "stop",
          "type": "uint8"
        }
      ],
      "name": "__voteStop",
      "type": "event"
    },
    {
      "anonymous": false,
      "inputs": [
        {
          "indexed": false,
          "name": "sender",
          "type": "address"
        },
        {
          "indexed": false,
          "name": "pid",
          "type": "uint256"
        }
      ],
      "name": "__stop",
      "type": "event"
    },
    {
      "anonymous": false,
      "inputs": [
        {
          "indexed": false,
          "name": "pid",
          "type": "uint256"
        },
        {
          "indexed": false,
          "name": "from",
          "type": "bytes32"
        },
        {
          "indexed": false,
          "name": "to",
          "type": "bytes32"
        }
      ],
      "name": "__changeState",
      "type": "event"
    },
    {
      "constant": false,
      "inputs": [
        {
          "name": "max",
          "type": "uint256"
        },
        {
          "name": "deadline",
          "type": "uint256"
        },
        {
          "name": "lifeTime",
          "type": "uint256"
        }
      ],
      "name": "initProject",
      "outputs": [],
      "payable": false,
      "stateMutability": "nonpayable",
      "type": "function"
    },
    {
      "constant": false,
      "inputs": [
        {
          "name": "pid",
          "type": "uint256"
        }
      ],
      "name": "stopProject",
      "outputs": [],
      "payable": false,
      "stateMutability": "nonpayable",
      "type": "function"
    },
    {
      "constant": true,
      "inputs": [
        {
          "name": "max",
          "type": "uint256"
        },
        {
          "name": "balance",
          "type": "uint256"
        }
      ],
      "name": "isReachMax",
      "outputs": [
        {
          "name": "r",
          "type": "bool"
        }
      ],
      "payable": false,
      "stateMutability": "pure",
      "type": "function"
    },
    {
      "constant": true,
      "inputs": [
        {
          "name": "deadline",
          "type": "uint256"
        }
      ],
      "name": "isReachDeadline",
      "outputs": [
        {
          "name": "",
          "type": "bool"
        }
      ],
      "payable": false,
      "stateMutability": "view",
      "type": "function"
    },
    {
      "constant": true,
      "inputs": [
        {
          "name": "time",
          "type": "uint256"
        }
      ],
      "name": "isReachlifeTime",
      "outputs": [
        {
          "name": "",
          "type": "bool"
        }
      ],
      "payable": false,
      "stateMutability": "view",
      "type": "function"
    },
    {
      "constant": false,
      "inputs": [
        {
          "name": "pid",
          "type": "uint256"
        }
      ],
      "name": "fundProject",
      "outputs": [],
      "payable": true,
      "stateMutability": "payable",
      "type": "function"
    },
    {
      "constant": false,
      "inputs": [
        {
          "name": "pid",
          "type": "uint256"
        }
      ],
      "name": "withdrawFund",
      "outputs": [],
      "payable": false,
      "stateMutability": "nonpayable",
      "type": "function"
    },
    {
      "constant": false,
      "inputs": [
        {
          "name": "pid",
          "type": "uint256"
        },
        {
          "name": "exchange",
          "type": "address"
        },
        {
          "name": "amount",
          "type": "uint256"
        }
      ],
      "name": "release",
      "outputs": [],
      "payable": false,
      "stateMutability": "nonpayable",
      "type": "function"
    },
    {
      "constant": false,
      "inputs": [
        {
          "name": "pid",
          "type": "uint256"
        },
        {
          "name": "scale",
          "type": "uint256"
        },
        {
          "name": "denominator",
          "type": "uint256"
        }
      ],
      "name": "retract",
      "outputs": [],
      "payable": false,
      "stateMutability": "nonpayable",
      "type": "function"
    },
    {
      "constant": false,
      "inputs": [
        {
          "name": "pid",
          "type": "uint256"
        },
        {
          "name": "stop",
          "type": "uint8"
        }
      ],
      "name": "voteStop",
      "outputs": [],
      "payable": false,
      "stateMutability": "nonpayable",
      "type": "function"
    },
    {
      "constant": true,
      "inputs": [],
      "name": "getProjectSize",
      "outputs": [
        {
          "name": "size",
          "type": "uint256"
        }
      ],
      "payable": false,
      "stateMutability": "view",
      "type": "function"
    }
  ],
  "bytecode": "0x608060405234801561001057600080fd5b50336000806101000a81548173ffffffffffffffffffffffffffffffffffffffff021916908373ffffffffffffffffffffffffffffffffffffffff160217905550612381806100606000396000f3006080604052600436106100b9576000357c0100000000000000000000000000000000000000000000000000000000900463ffffffff168062444e0c146100be5780630cee1725146100e9578063107046bd14610116578063229c9f6c146101d75780634ea59b021461022e5780635a6800731461026f5780635c327a58146102a95780636c563abe146102ee5780636db7a9601461030e5780636ddfcdc71461033b578063ad1b36a81461037c578063c874c61e146103cb575b600080fd5b3480156100ca57600080fd5b506100d3610410565b6040518082815260200191505060405180910390f35b3480156100f557600080fd5b506101146004803603810190808035906020019092919050505061041d565b005b34801561012257600080fd5b5061014160048036038101908080359060200190929190505050610ab3565b604051808c73ffffffffffffffffffffffffffffffffffffffff1673ffffffffffffffffffffffffffffffffffffffff1681526020018b81526020018a81526020018981526020018881526020018781526020018681526020018581526020018481526020018360058111156101b357fe5b60ff1681526020018281526020019b50505050505050505050505060405180910390f35b3480156101e357600080fd5b5061022c60048036038101908080359060200190929190803573ffffffffffffffffffffffffffffffffffffffff16906020019092919080359060200190929190505050610b67565b005b34801561023a57600080fd5b5061026d600480360381019080803590602001909291908035906020019092919080359060200190929190505050610ec9565b005b34801561027b57600080fd5b506102a760048036038101908080359060200190929190803560ff1690602001909291905050506111ba565b005b3480156102b557600080fd5b506102d460048036038101908080359060200190929190505050611353565b604051808215151515815260200191505060405180910390f35b61030c6004803603810190808035906020019092919050505061137b565b005b34801561031a57600080fd5b5061033960048036038101908080359060200190929190505050611b51565b005b34801561034757600080fd5b5061037a600480360381019080803590602001909291908035906020019092919080359060200190929190505050611f42565b005b34801561038857600080fd5b506103b16004803603810190808035906020019092919080359060200190929190505050612258565b604051808215151515815260200191505060405180910390f35b3480156103d757600080fd5b506103f660048036038101908080359060200190929190505050612282565b604051808215151515815260200191505060405180910390f35b6000600180549050905090565b60008060018381548110151561042f57fe5b90600052602060002090600e020191506104528260060154836008015401612282565b15610568576001600581111561046457fe5b82600b0160009054906101000a900460ff16600581111561048157fe5b14806104b457506002600581111561049557fe5b82600b0160009054906101000a900460ff1660058111156104b257fe5b145b1561056757600582600b0160006101000a81548160ff021916908360058111156104da57fe5b02179055507f563e91b86c14dd4df46f82adac8f297acb8938ea33140959cdd4017c6d9141068360405180828152602001807f415050524f5645447c5245414459000000000000000000000000000000000000815250602001807f574954484452415700000000000000000000000000000000000000000000000081525060200191505060405180910390a15b5b6000600581111561057557fe5b82600b0160009054906101000a900460ff16600581111561059257fe5b1480156105e0575060008260090160003373ffffffffffffffffffffffffffffffffffffffff1673ffffffffffffffffffffffffffffffffffffffff16815260200190815260200160002054115b15610806578160090160003373ffffffffffffffffffffffffffffffffffffffff1673ffffffffffffffffffffffffffffffffffffffff16815260200190815260200160002054826004015403826004018190555060008260090160003373ffffffffffffffffffffffffffffffffffffffff1673ffffffffffffffffffffffffffffffffffffffff168152602001908152602001600020819055503373ffffffffffffffffffffffffffffffffffffffff166108fc8360090160003373ffffffffffffffffffffffffffffffffffffffff1673ffffffffffffffffffffffffffffffffffffffff168152602001908152602001600020549081150290604051600060405180830381858888f19350505050158015610703573d6000803e3d6000fd5b507f38701d9c9885d2166105f2d8e4ec1c337bf4b66dec1c38aec2568eff7846b3da83338460090160003373ffffffffffffffffffffffffffffffffffffffff1673ffffffffffffffffffffffffffffffffffffffff168152602001908152602001600020548560090160003373ffffffffffffffffffffffffffffffffffffffff1673ffffffffffffffffffffffffffffffffffffffff16815260200190815260200160002054604051808581526020018473ffffffffffffffffffffffffffffffffffffffff1673ffffffffffffffffffffffffffffffffffffffff16815260200183815260200182815260200194505050505060405180910390a1610aae565b60058081111561081257fe5b82600b0160009054906101000a900460ff16600581111561082f57fe5b14801561087d575060008260090160003373ffffffffffffffffffffffffffffffffffffffff1673ffffffffffffffffffffffffffffffffffffffff16815260200190815260200160002054115b15610a3f5781600c016001015482600c01600001548360090160003373ffffffffffffffffffffffffffffffffffffffff1673ffffffffffffffffffffffffffffffffffffffff16815260200190815260200160002054028115156108de57fe5b04905080826004015403826004018190555060008260090160003373ffffffffffffffffffffffffffffffffffffffff1673ffffffffffffffffffffffffffffffffffffffff168152602001908152602001600020819055503373ffffffffffffffffffffffffffffffffffffffff166108fc829081150290604051600060405180830381858888f1935050505015801561097d573d6000803e3d6000fd5b507f38701d9c9885d2166105f2d8e4ec1c337bf4b66dec1c38aec2568eff7846b3da83338460090160003373ffffffffffffffffffffffffffffffffffffffff1673ffffffffffffffffffffffffffffffffffffffff1681526020019081526020016000205484604051808581526020018473ffffffffffffffffffffffffffffffffffffffff1673ffffffffffffffffffffffffffffffffffffffff16815260200183815260200182815260200194505050505060405180910390a1610aad565b6040517f08c379a000000000000000000000000000000000000000000000000000000000815260040180806020018281038252601d8152602001807f43616e6e6f74207769746864726177206174207468697320737461746500000081525060200191505060405180910390fd5b5b505050565b600181815481101515610ac257fe5b90600052602060002090600e02016000915090508060000160009054906101000a900473ffffffffffffffffffffffffffffffffffffffff169080600101549080600201549080600301549080600401549080600501549080600601549080600701549080600801549080600b0160009054906101000a900460ff169080600c016040805190810160405290816000820154815260200160018201548152505090508b565b6000600184815481101515610b7857fe5b90600052602060002090600e0201905060016005811115610b9557fe5b81600b0160009054906101000a900460ff166005811115610bb257fe5b1480610be5575060026005811115610bc657fe5b81600b0160009054906101000a900460ff166005811115610be357fe5b145b80610c17575060036005811115610bf857fe5b81600b0160009054906101000a900460ff166005811115610c1557fe5b145b1515610c8b576040517f08c379a00000000000000000000000000000000000000000000000000000000081526004018080602001828103825260038152602001807f313030000000000000000000000000000000000000000000000000000000000081525060200191505060405180910390fd5b80600301548282600501540111151515610d0d576040517f08c379a00000000000000000000000000000000000000000000000000000000081526004018080602001828103825260038152602001807f313032000000000000000000000000000000000000000000000000000000000081525060200191505060405180910390fd5b60016005811115610d1a57fe5b81600b0160009054906101000a900460ff166005811115610d3757fe5b1415610d47574281600601819055505b8273ffffffffffffffffffffffffffffffffffffffff166108fc839081150290604051600060405180830381858888f19350505050158015610d8d573d6000803e3d6000fd5b5081816005015401816005018190555060036005811115610daa57fe5b81600b0160009054906101000a900460ff166005811115610dc757fe5b50507f563e91b86c14dd4df46f82adac8f297acb8938ea33140959cdd4017c6d9141068460405180828152602001807f415050524f5645447c52454144597c52454c4541534500000000000000000000815250602001807f52454c454153450000000000000000000000000000000000000000000000000081525060200191505060405180910390a17f8eafaa9b092d6bdfb11c2f795cd6a39ba3e1f95c1ac94052874422b0cfd83cb8848484604051808481526020018373ffffffffffffffffffffffffffffffffffffffff1673ffffffffffffffffffffffffffffffffffffffff168152602001828152602001935050505060405180910390a150505050565b610ed161229f565b610ed9612321565b33826000019073ffffffffffffffffffffffffffffffffffffffff16908173ffffffffffffffffffffffffffffffffffffffff168152505060008261012001906005811115610f2457fe5b90816005811115610f3157fe5b8152505060008260a0018181525050600a816000018181525050600181602001818152505080826101400181905250838260e00181815250508282610100018181525050848260400181815250506000826060018181525050600082608001818152505060008260a00181815250506001829080600181540180825580915050906001820390600052602060002090600e02016000909192909190915060008201518160000160006101000a81548173ffffffffffffffffffffffffffffffffffffffff021916908373ffffffffffffffffffffffffffffffffffffffff1602179055506020820151816001015560408201518160020155606082015181600301556080820151816004015560a0820151816005015560c0820151816006015560e08201518160070155610100820151816008015561012082015181600b0160006101000a81548160ff0219169083600581111561108b57fe5b021790555061014082015181600c01600082015181600001556020820151816001015550505050507f06625bf2020036b3a59570bdd26dafb824da111921caaddfd3c38e4d0ab3e430336001808054905003604051808373ffffffffffffffffffffffffffffffffffffffff1673ffffffffffffffffffffffffffffffffffffffff1681526020018281526020019250505060405180910390a17f563e91b86c14dd4df46f82adac8f297acb8938ea33140959cdd4017c6d914106600180805490500360405180828152602001807f4e554c4c00000000000000000000000000000000000000000000000000000000815250602001807f494e495446554e4400000000000000000000000000000000000000000000000081525060200191505060405180910390a15050505050565b60006001838154811015156111cb57fe5b90600052602060002090600e02019050600060058111156111e857fe5b81600b0160009054906101000a900460ff16600581111561120557fe5b1415151561127b576040517f08c379a00000000000000000000000000000000000000000000000000000000081526004018080602001828103825260038152602001807f313030000000000000000000000000000000000000000000000000000000000081525060200191505060405180910390fd5b8181600a0160003373ffffffffffffffffffffffffffffffffffffffff1673ffffffffffffffffffffffffffffffffffffffff16815260200190815260200160002060006101000a81548160ff021916908360ff1602179055507fbcd5054161ebe39e387edee9393912905f9ab182bb1aed315d913762a1db66cf338484604051808473ffffffffffffffffffffffffffffffffffffffff1673ffffffffffffffffffffffffffffffffffffffff1681526020018381526020018260ff1660ff168152602001935050505060405180910390a1505050565b6000808211801561136357508142115b156113715760019050611376565b600090505b919050565b600080600060018481548110151561138f57fe5b90600052602060002090600e02019250600060058111156113ac57fe5b83600b0160009054906101000a900460ff1660058111156113c957fe5b14806113fc5750600160058111156113dd57fe5b83600b0160009054906101000a900460ff1660058111156113fa57fe5b145b1515611470576040517f08c379a00000000000000000000000000000000000000000000000000000000081526004018080602001828103825260038152602001807f313030000000000000000000000000000000000000000000000000000000000081525060200191505060405180910390fd5b3491506000600581111561148057fe5b83600b0160009054906101000a900460ff16600581111561149d57fe5b141561166e576114b08360070154611353565b156115ae57600583600b0160006101000a81548160ff021916908360058111156114d657fe5b02179055503373ffffffffffffffffffffffffffffffffffffffff166108fc349081150290604051600060405180830381858888f19350505050158015611521573d6000803e3d6000fd5b507f563e91b86c14dd4df46f82adac8f297acb8938ea33140959cdd4017c6d9141068460405180828152602001807f494e495446554e44000000000000000000000000000000000000000000000000815250602001807f574954484452415700000000000000000000000000000000000000000000000081525060200191505060405180910390a1611b4b565b8260010154836003015410151561166d57600183600b0160006101000a81548160ff021916908360058111156115e057fe5b02179055507f563e91b86c14dd4df46f82adac8f297acb8938ea33140959cdd4017c6d9141068460405180828152602001807f494e495446554e44000000000000000000000000000000000000000000000000815250602001807f415050524f56454400000000000000000000000000000000000000000000000081525060200191505060405180910390a15b5b6001600581111561167b57fe5b83600b0160009054906101000a900460ff16600581111561169857fe5b14156117c0576116ab8360070154611353565b156117bf57600283600b0160006101000a81548160ff021916908360058111156116d157fe5b02179055503373ffffffffffffffffffffffffffffffffffffffff166108fc349081150290604051600060405180830381858888f1935050505015801561171c573d6000803e3d6000fd5b50826003015483600401819055504283600601819055507f563e91b86c14dd4df46f82adac8f297acb8938ea33140959cdd4017c6d9141068460405180828152602001807f415050524f564544000000000000000000000000000000000000000000000000815250602001807f524541445900000000000000000000000000000000000000000000000000000081525060200191505060405180910390a1611b4b565b5b6000341115611b4a5760008360090160003373ffffffffffffffffffffffffffffffffffffffff1673ffffffffffffffffffffffffffffffffffffffff168152602001908152602001600020541015156118a257348360090160003373ffffffffffffffffffffffffffffffffffffffff1673ffffffffffffffffffffffffffffffffffffffff16815260200190815260200160002054018360090160003373ffffffffffffffffffffffffffffffffffffffff1673ffffffffffffffffffffffffffffffffffffffff168152602001908152602001600020819055506118e9565b348360090160003373ffffffffffffffffffffffffffffffffffffffff1673ffffffffffffffffffffffffffffffffffffffff168152602001908152602001600020819055505b34836003015401836003018190555061190a83600201548460030154612258565b15611ad657600283600b0160006101000a81548160ff0219169083600581111561193057fe5b02179055504283600601819055507f563e91b86c14dd4df46f82adac8f297acb8938ea33140959cdd4017c6d9141068460405180828152602001807f415050524f564544000000000000000000000000000000000000000000000000815250602001807f524541445900000000000000000000000000000000000000000000000000000081525060200191505060405180910390a1600a83600201548460030154031115611ac857600a83600201548460030154030390503373ffffffffffffffffffffffffffffffffffffffff166108fc829081150290604051600060405180830381858888f19350505050158015611a2e573d6000803e3d6000fd5b50808360090160003373ffffffffffffffffffffffffffffffffffffffff1673ffffffffffffffffffffffffffffffffffffffff16815260200190815260200160002054038360090160003373ffffffffffffffffffffffffffffffffffffffff1673ffffffffffffffffffffffffffffffffffffffff168152602001908152602001600020819055508083600301540383600301819055505b826003015483600401819055505b7f3e6ebea5ca2d43e5a1c7ff38fbb2b1663b8a3aefb78a4622e9ad9f4e2d44ad7c843384604051808481526020018373ffffffffffffffffffffffffffffffffffffffff1673ffffffffffffffffffffffffffffffffffffffff168152602001828152602001935050505060405180910390a15b5b50505050565b600081600181815481101515611b6357fe5b90600052602060002090600e020160000160009054906101000a900473ffffffffffffffffffffffffffffffffffffffff1673ffffffffffffffffffffffffffffffffffffffff163373ffffffffffffffffffffffffffffffffffffffff161480611c1a57503373ffffffffffffffffffffffffffffffffffffffff166000809054906101000a900473ffffffffffffffffffffffffffffffffffffffff1673ffffffffffffffffffffffffffffffffffffffff16145b1515611c8e576040517f08c379a00000000000000000000000000000000000000000000000000000000081526004018080602001828103825260038152602001807f313031000000000000000000000000000000000000000000000000000000000081525060200191505060405180910390fd5b600183815481101515611c9d57fe5b90600052602060002090600e020191507ffcb0d0be9240c546f063f0979a3f26be783693f9bac16a1b17fdae19865a7e053384604051808373ffffffffffffffffffffffffffffffffffffffff1673ffffffffffffffffffffffffffffffffffffffff1681526020018281526020019250505060405180910390a160006005811115611d2557fe5b82600b0160009054906101000a900460ff166005811115611d4257fe5b1480611d75575060016005811115611d5657fe5b82600b0160009054906101000a900460ff166005811115611d7357fe5b145b80611da7575060026005811115611d8857fe5b82600b0160009054906101000a900460ff166005811115611da557fe5b145b80611dd85750600580811115611db957fe5b82600b0160009054906101000a900460ff166005811115611dd657fe5b145b15611e8f577f563e91b86c14dd4df46f82adac8f297acb8938ea33140959cdd4017c6d9141068360405180828152602001807f5f00000000000000000000000000000000000000000000000000000000000000815250602001807f53544f500000000000000000000000000000000000000000000000000000000081525060200191505060405180910390a1600582600b0160006101000a81548160ff02191690836005811115611e8557fe5b0217905550611f3d565b7f563e91b86c14dd4df46f82adac8f297acb8938ea33140959cdd4017c6d9141068360405180828152602001807f52454c454153457c53544f500000000000000000000000000000000000000000815250602001807f53544f500000000000000000000000000000000000000000000000000000000081525060200191505060405180910390a1600482600b0160006101000a81548160ff02191690836005811115611f3757fe5b02179055505b505050565b6000611f4c612321565b3373ffffffffffffffffffffffffffffffffffffffff166000809054906101000a900473ffffffffffffffffffffffffffffffffffffffff1673ffffffffffffffffffffffffffffffffffffffff16141515612010576040517f08c379a00000000000000000000000000000000000000000000000000000000081526004018080602001828103825260038152602001807f313031000000000000000000000000000000000000000000000000000000000081525060200191505060405180910390fd5b60018581548110151561201f57fe5b90600052602060002090600e020191506003600581111561203c57fe5b82600b0160009054906101000a900460ff16600581111561205957fe5b148061208c57506004600581111561206d57fe5b82600b0160009054906101000a900460ff16600581111561208a57fe5b145b1515612100576040517f08c379a00000000000000000000000000000000000000000000000000000000081526004018080602001828103825260038152602001807f313030000000000000000000000000000000000000000000000000000000000081525060200191505060405180910390fd5b60058081111561210c57fe5b82600b0160009054906101000a900460ff16600581111561212957fe5b505083816000018181525050828160200181815250508082600c01600082015181600001556020820151816001015590505081600c016001015482600c016000015483600301540281151561217a57fe5b0482600401819055507f563e91b86c14dd4df46f82adac8f297acb8938ea33140959cdd4017c6d9141068560405180828152602001807f52454c454153457c53544f500000000000000000000000000000000000000000815250602001807f574954484452415700000000000000000000000000000000000000000000000081525060200191505060405180910390a17f6d38d98fc21ac6c8c003056167d459b5ca6f16009d6105919e5344fc2075b34c85858560405180848152602001838152602001828152602001935050505060405180910390a15050505050565b600080831180156122695750828210155b15612277576001905061227c565b600090505b92915050565b600081421115612295576001905061229a565b600090505b919050565b61018060405190810160405280600073ffffffffffffffffffffffffffffffffffffffff16815260200160008152602001600081526020016000815260200160008152602001600081526020016000815260200160008152602001600081526020016000600581111561230e57fe5b815260200161231b61233b565b81525090565b604080519081016040528060008152602001600081525090565b6040805190810160405280600081526020016000815250905600a165627a7a72305820781af86de3def23398428180abd0fe6d28768f8101207016cf0db5ed5e588c020029",
  "source": "/**\n    Author: vvstdung89\n    Version: 0.01\n    Date: 22 August 2018\n\n    TODO:\n        Optional: Vote 50% -> stop project (centralize accounting -> smart contract accounting)\n        Function to read data\n    CONSIDER:\n        storage vs memory\n        Test: with large number of ether & scale\n    Note:\n        Project timeout: in release state, centralized system need to retract before user can withdraw!!!\n*/\n\npragma solidity ^0.4.2;\n\n//100: State Error\n//101: Unauthorization\n//102: release wrong amount\n\ncontract HedgeFund {\n    //Parameters\n    enum S { INITFUND, APPROVED, READY, RELEASED, STOP, WITHDRAW }\n    \n    struct ScaleFund { // userWithdrawFund = (userFund * scale)/denominator\n        uint scale;\n        uint denominator;\n    }\n\n    struct Project {\n        address owner;\n        uint target;\n        uint max;\n        uint fundingAmount;\n        uint updatedAmmount;\n\n        uint releasedAmount;\n        uint startTime;\n        uint deadline;\n        uint lifeTime;\n\n        mapping(address => uint) funds;\n        mapping(address => uint8) cancelRequests;\n        S state;\n        ScaleFund scale;\n    }\n\n    address contractOwner;\n    Project[] public projects;\n    \n    //event\n    event __init(address owner, uint pid);\n    event __funding(uint pid, address funder,  uint amount);\n    event __withdraw(uint pid, address requester, uint fundAmount, uint withdrawAmount);\n    event __release(uint pid, address exchange, uint amount);\n    event __retract(uint pid, uint from, uint to);\n    event __voteStop(address sender, uint pid, uint8 stop);\n    event __stop(address sender, uint pid);\n    event __changeState(uint pid, bytes32 from, bytes32 to);\n\n    modifier onlyContractOwner() {\n        require(contractOwner == msg.sender, \"101\");\n        _;\n    }\n\n    modifier onlyProjectOwner(uint pid) {\n        require(msg.sender == projects[pid].owner || contractOwner == msg.sender, \"101\");\n        _;\n    }\n\n    //Constructor\n    constructor() public {\n        contractOwner = msg.sender;\n    }\n\n    //POST function\n    function initProject(uint max, uint deadline, uint lifeTime) public {\n        Project memory p;\n        \n        p.owner = msg.sender;\n        p.state = S.INITFUND;\n        p.releasedAmount = 0;\n\n        ScaleFund memory scaleF;\n        scaleF.scale = 10;\n        scaleF.denominator = 1;\n        p.scale = scaleF;\n\n        p.deadline = deadline;\n        p.lifeTime = lifeTime;\n        \n        p.max = max;\n        p.fundingAmount = 0;\n        p.updatedAmmount = 0;\n        p.releasedAmount = 0;\n\n        projects.push(p);\n        emit __init(msg.sender, projects.length - 1);\n        emit __changeState(projects.length - 1, \"NULL\", \"INITFUND\");\n    }\n    \n    function stopProject(uint pid) public onlyProjectOwner(pid) {\n        Project storage p = projects[pid];\n        emit __stop(msg.sender, pid);\n        if (p.state == S.INITFUND || p.state == S.APPROVED || p.state == S.READY || p.state == S.WITHDRAW){\n            emit __changeState(pid, \"_\", \"STOP\");\n            p.state = S.WITHDRAW;\n        }else {\n            emit __changeState(pid, \"RELEASE|STOP\", \"STOP\");\n            p.state = S.STOP;\n        }\n    }\n\n    function isReachMax(uint max,uint  balance) public pure returns (bool r) {\n        if (max > 0 && balance >= max) return true;\n        else return false;\n    }\n    \n    function isReachDeadline(uint deadline) public view returns (bool) {\n        if (deadline > 0 && now > deadline) return true; //Using timestamp in eth blockchain???\n        else return false;\n    }\n\n    function isReachlifeTime(uint time) public view returns (bool) {\n        if (now > time) return true; //Using timestamp in eth blockchain???\n        else return false;\n    }\n\n    function fundProject(uint pid) public payable {\n        Project storage p = projects[pid];\n        require(p.state == S.INITFUND || p.state == S.APPROVED, \"100\");\n\n        uint fundingAmount = msg.value;\n\n        if (p.state == S.INITFUND){\n            if (isReachDeadline(p.deadline)){\n                p.state = S.WITHDRAW;\n                msg.sender.transfer(msg.value);\n                emit __changeState(pid, \"INITFUND\", \"WITHDRAW\");\n                return;\n            } else if (p.fundingAmount >= p.target) {\n                p.state = S.APPROVED;\n                emit __changeState(pid, \"INITFUND\", \"APPROVED\");\n            }\n        } \n        \n        if (p.state == S.APPROVED ){ //funding is reach deadline - do nothing\n            if (isReachDeadline(p.deadline)){\n                p.state = S.READY;\n                msg.sender.transfer(msg.value);\n                p.updatedAmmount = p.fundingAmount;\n                p.startTime = now;\n                emit __changeState(pid, \"APPROVED\", \"READY\");\n                return;\n            } \n        } \n        \n        //update fund\n        if ( msg.value > 0 ) {\n            if (p.funds[msg.sender] >= 0)\n                p.funds[msg.sender] = p.funds[msg.sender] + msg.value;\n            else\n                p.funds[msg.sender] = msg.value;\n            p.fundingAmount = p.fundingAmount + msg.value;\n\n            //recheck the balance if fund is larger max\n            if ( isReachMax(p.max, p.fundingAmount) ){\n                p.state = S.READY;\n                p.startTime = now;\n                emit __changeState(pid, \"APPROVED\", \"READY\");\n                if (p.fundingAmount - p.max > 10) { //TODO: check unit\n                    uint retractAmount = p.fundingAmount - p.max - 10;\n                    msg.sender.transfer(retractAmount);\n                    p.funds[msg.sender] = p.funds[msg.sender] - retractAmount;\n                    p.fundingAmount = p.fundingAmount - retractAmount;\n                }\n                p.updatedAmmount = p.fundingAmount;\n            }\n            emit __funding(pid, msg.sender, fundingAmount);\n        }\n    }\n\n    function withdrawFund(uint pid) public {\n        Project storage p = projects[pid];\n        \n        if (isReachlifeTime(p.lifeTime + p.startTime) ){ //if this project reach lifeTime\n            if (p.state == S.APPROVED || p.state == S.READY){ //and the state is in APPROVE or READY, it should allow user to withdraw\n                p.state = S.WITHDRAW;\n                emit __changeState(pid, \"APPROVED|READY\", \"WITHDRAW\");\n            }\n        }\n            \n        if ( p.state == S.INITFUND && p.funds[msg.sender] > 0) {\n            p.updatedAmmount = p.updatedAmmount - p.funds[msg.sender];\n            p.funds[msg.sender] = 0;\n            msg.sender.transfer(p.funds[msg.sender]);\n            emit __withdraw(pid, msg.sender, p.funds[msg.sender], p.funds[msg.sender]);\n        } else  if ( p.state == S.WITHDRAW && p.funds[msg.sender] > 0) {\n            uint256 withdrawAmount = (p.funds[msg.sender]*p.scale.scale)/p.scale.denominator;\n            p.updatedAmmount = p.updatedAmmount - withdrawAmount;\n            p.funds[msg.sender] = 0;\n            msg.sender.transfer(withdrawAmount);\n            emit __withdraw(pid, msg.sender, p.funds[msg.sender], withdrawAmount);\n        } else {\n            revert(\"Cannot withdraw at this state\");\n        }\n    } \n\n    function release(uint pid, address exchange, uint amount) public {\n        Project storage p = projects[pid];\n        require(p.state == S.APPROVED || p.state == S.READY || p.state == S.RELEASED, \"100\"); //should be in ready or release state\n        require(p.releasedAmount + amount <= p.fundingAmount, \"102\"); //should not release fund larger than funding amount\n\n        if (p.state == S.APPROVED) p.startTime = now; //release signal in approved state (means start project anyway), update start time to now\n\n        exchange.transfer(amount);\n        p.releasedAmount = p.releasedAmount + amount;\n        p.state == S.RELEASED;\n        emit __changeState(pid, \"APPROVED|READY|RELEASE\", \"RELEASE\");\n        emit __release(pid, exchange, amount);\n        \n    }\n\n    function retract(uint pid, uint scale, uint denominator) public onlyContractOwner() { //0.017 => scale=17 \n        Project storage p = projects[pid];\n        require(p.state == S.RELEASED || p.state == S.STOP, \"100\");\n        p.state == S.WITHDRAW;\n        ScaleFund memory scaleF;\n        scaleF.scale = scale;\n        scaleF.denominator = denominator;\n        p.scale = scaleF;\n        p.updatedAmmount = (p.fundingAmount*p.scale.scale)/p.scale.denominator;\n        emit __changeState(pid, \"RELEASE|STOP\", \"WITHDRAW\");\n        emit __retract(pid, scale, denominator);\n    }\n\n    function voteStop(uint pid, uint8 stop) public {\n        Project storage p = projects[pid];\n        require(p.state != S.INITFUND, \"100\"); // except in init state, user can vote to stop or continue project\n        p.cancelRequests[msg.sender] = stop;\n        emit __voteStop(msg.sender, pid, stop);\n    }\n    //GET function\n\n    function getProjectSize() public view returns (uint size) {\n        return projects.length;\n    }\n\n\n\n\n}",
  "sourcePath": "/home/david/Projects/ninjafund/contracts/HedgeFund.sol",
  "compiler": {
    "name": "solc",
    "version": "0.4.24+commit.e67f0147.Emscripten.clang"
  },
  "schemaVersion": "2.0.1",
  "updatedAt": "2018-08-23T04:10:21.086Z"
}